:020000040000FA
:06000000A3EF0BF012005B
:020006000000F8
:0800080007EF00F01200DACF4F
:10001000E4FFE2CFDAFFE9CFE4FFEACFE4FFF6CF77
:10002000E4FFF7CFE4FFF5CFE4FFF3CFE4FFF4CF35
:10003000E4FFFACFE4FF00EE00F00B0EE80403E368
:10004000EECFE4FFFBD700EE0BF0030EE80403E372
:10005000EECFE4FFFBD7E6529EAA18D024EC0BF0BB
:10006000E66E00016151EA6A6425E96E6551EA2293
:10007000E552E750EF6E6151612BEA6A6425E96E43
:100080006551EA22EF500A0801E1602BA4AA18D0BA
:1000900005EC0BF0E66E00016751EA6A6A25E96E2D
:1000A0006B51EA22E552E750EF6E6751672BEA6A1F
:1000B0006A25E96E6B51EA22EF500A0801E1662BCE
:1000C000F0A00FD00001855106E1D58EF19AF09095
:1000D000010E856F06D0D59EF18AF090856B010EDA
:1000E000866FE55200EE0DF0030EE80403E3E5CF62
:1000F000EDFFFBD700EE0AF00B0EE80403E3E5CFBB
:10010000EDFFFBD7E5CFFAFFE5CFF4FFE5CFF3FF37
:10011000E5CFF5FFE5CFF7FFE5CFF6FFE5CFEAFF47
:10012000E5CFE9FFE5CFDAFF1100D9CFE6FFE1CF58
:10013000D9FFFA0EDBCFF3FFDB2AF350E76EFD0E9B
:10014000DBCFE9FFFE0EDBCFEAFFE750E926000E2A
:10015000EA22EF50E66EFB0EDBCFE9FFDB2AFC0E56
:10016000DBCFEAFF01E3DB2AE552E750EF6EFA0E40
:10017000DB50E76EFD0EDBCFE9FFFE0EDBCFEAFFC3
:10018000E750E926000EEA22EF502208D2E1FB0EEA
:10019000DBCFE9FFFC0EDBCFEAFFEF6AE552E7CFEA
:1001A000D9FF1200D9CFE6FFE1CFD9FFE652000E0A
:1001B000000181150B6EF00E82150C6E0C380C6A66
:1001C0000F0B0B6E0B50DF6E300EDF26DF50390841
:1001D00002E2070EDF26FD0EDBCFE9FFFE0EDBCFCE
:1001E000EAFFDFCFEFFF000E81150B6E0F0E8215B9
:1001F0000C6E0CC00BF00C6A0B50DF6E300EDF265D
:10020000DF50390802E2070EDF26010EE76EFD0E11
:10021000DBCFE9FFFE0EDBCFEAFFE750E926000E59
:10022000EA22DFCFEFFFF00E81150B6E0C6A040E91
:10023000D8900C320B32E804FBE10B50DF6E300E2D
:10024000DF26DF50390802E2070EDF26020EE76ED6
:10025000FD0EDBCFE9FFFE0EDBCFEAFFE750E9261C
:10026000000EEA22DFCFEFFF0F0E00018115DF6ED7
:10027000300EDF26DF50390802E2070EDF26030EBC
:10028000E76EFD0EDBCFE9FFFE0EDBCFEAFFE750A6
:10029000E926000EEA22DFCFEFFFE552E552E7CF75
:1002A000D9FF1200D9CFE6FFE1CFD9FFFC0EDBCF9B
:1002B000F3FFDB2AF350E76EFD0EDBCFE9FFFE0E06
:1002C000DBCFEAFFE750E926000EEA22EF50E66EA8
:1002D000FA0EDBCFE9FFDB2AFB0EDBCFEAFF01E3FF
:1002E000DB2AE552E750EF6EFC0EDB50E76EFD0EA9
:1002F000DBCFE9FFFE0EDBCFEAFFE750E926000E79
:10030000EA22EF500D08D2E1FA0EDBCFE9FFFB0E37
:10031000DBCFEAFFEF6AE552E7CFD9FF1200D9CF72
:10032000E6FFE1CFD9FFFB0EDB0412E1ADA2FED761
:10033000FC0EDBCFF6FFFD0EDBCFF7FFFE0EDBCFB3
:10034000F8FF0800F550E66E5AEC0BF0E55215D0B8
:10035000FB0EDB50020811E1A8A2FED7FC0EDBCF9A
:10036000F6FFFD0EDBCFF7FFFE0EDBCFF8FF080038
:10037000F550E66E43EC0BF0E552E552E7CFD9FFBE
:100380001200D9CFE6FFE1CFD9FFFC0EDB040EE16E
:10039000ADA2FED7FD0EDBCFE9FFFE0EDBCFEAFFFD
:1003A000EF50E66E5AEC0BF0E55211D0FC0EDB502C
:1003B00002080DE1A8A2FED7FD0EDBCFE9FFFE0E7D
:1003C000DBCFEAFFEF50E66E43EC0BF0E552E5526F
:1003D000E7CFD9FF1200D9CFE6FFE1CFD9FFFC0E5E
:1003E000DB0419E1ADA2FED7FD0EDBCFE9FFFE0E67
:1003F000DBCFEAFFEF50E66E5AEC0BF0E552FD0E54
:10040000DB2ADBCFE9FFFE0E01E3DB2ADBCFEAFFCD
:10041000EF50E8E11CD0FC0EDB50020818E1A8A266
:10042000FED7FD0EDBCFE9FFFE0EDBCFEAFFEF507C
:10043000E66E43EC0BF0E552FD0EDB2ADBCFE9FF65
:10044000FE0E01E3DB2ADBCFEAFFEF50E8E1E552E5
:10045000E7CFD9FF1200D9CFE6FFE1CFD9FFFB0EDE
:10046000DB0425E1ADA2FED7FC0EDBCFF6FFFD0ECF
:10047000DBCFF7FFFE0EDBCFF8FF0800F550E66E8E
:100480005AEC0BF0E552D950FC0FE96EFF0EDA2062
:10049000EA6EEF2AEECFF6FF000EEF22EECFF7FF67
:1004A000EF22EECFF8FF0800F550DCE128D0FB0E7C
:1004B000DB50020824E1A8A2FED7FC0EDBCFF6FF3A
:1004C000FD0EDBCFF7FFFE0EDBCFF8FF0800F55087
:1004D000E66E43EC0BF0E552D950FC0FE96EFF0ECF
:1004E000DA20EA6EEF2AEECFF6FF000EEF22EECF13
:1004F000F7FFEF22EECFF8FF0800F550DCE1E55200
:10050000E7CFD9FF1200D9CFE6FFE1CFD9FFE652FE
:10051000F90EDBCFE6FFFA0EDBCFE6FFFB0EDBCFFB
:10052000E6FFE0EC0AF0E552E552E5520550DF6ED9
:10053000DF50DF06000929E0FC0EDBCFF3FFDB2AEA
:10054000F350E76EFD0EDBCFE9FFFE0EDBCFEAFFD7
:10055000E750E926000EEA22EFCF0BF0D950F90F51
:10056000E96EFF0EDA20EA6EEFCFF6FFEE2AEFCF4C
:10057000F7FF000EEE22EFCFF8FFEE220800F55055
:100580000B5C02E0000E03D0D3D7010E00D0E55281
:10059000E552E7CFD9FF1200D9CFE6FFE1CFD9FF6F
:1005A000140EE126DF6A010EDB6A020EDB6A030E1F
:1005B000DB6A040EDB6A050EDB6A060EDB6A0B0ED5
:1005C000DB6A0C0EDB6A010EF36E0D0EF3CFDBFF60
:1005D0000E0EDB6A0F0EDB6A100EDB6A110EDB6A91
:1005E000AEEC09F00001000E646F020E656F616BE6
:1005F000626B636B606B000E6A6F030E6B6F676BF1
:10060000686B696B666B070EDB6A080EDB6A090EA6
:10061000DB6A0A0EDB6A0C0EDB6A300E7C6F7D6FC4
:100620007E6F7F6F806B816B826B0401006F016B4B
:10063000806F816B7C0EE66E000EE66EB3DDE552D8
:10064000E55200016351615D0FE0ADA2FED70001EC
:100650006351632BEA6A6425E96E6551EA22EF5023
:10066000E66E5AEC0BF0E552DF50030A01E1CAD006
:10067000010A01E1ABD0030A09E0010A01E0D1D08F
:100680000001605102E0010EDF6ECBD00B0EDB509B
:1006900001E09BD0160EE66E110EE66E000EE66EC1
:1006A00062C0E6FF64C0E6FF65C0E6FF2CDF0B6EAC
:1006B000060EE15E0B50000907E0020EF36E030E1A
:1006C000F3CFDBFFDF6E81D01E0EE66E110EE66EFD
:1006D000000EE66E62C0E6FF64C0E6FF65C0E6FF9E
:1006E00012DF0B6E060EE15E0B50000906E0030EF2
:1006F000F36EF3CFDBFFDF6E68D0260EE66E110ED1
:10070000E66E000EE66E62C0E6FF64C0E6FF65C0FE
:10071000E6FFF9DE0B6E060EE15E0B50000908E005
:100720000D0EDB6A030EF36EF3CFDBFFDF6E4DD0F1
:100730002E0EE66E110EE66E000EE66E62C0E6FF4D
:1007400064C0E6FF65C0E6FFDEDE0B6E060EE15E0E
:100750000B50000906E0040EF36E030EF3CFDBFF2F
:1007600034D0360EE66E110EE66E000EE66E62C0F6
:10077000E6FF64C0E6FF65C0E6FFC5DE0B6E060E51
:10078000E15E0B50000906E0050EF36E030EF3CF99
:10079000DBFF1BD03E0EE66E110EE66E000EE66E1F
:1007A00062C0E6FF64C0E6FF65C0E6FFACDE0B6E2C
:1007B000060EE15E0B50000906E0060EF36E030E16
:1007C000F3CFDBFF02D0020EDF6E2BD0A8A2FED744
:1007D00000016251EA6A6425E96E6551EA22EF5030
:1007E000E66E43EC0BF0E55200016251622BEA6ABF
:1007F0006425E96E6551EA22EF500A08E7E1DF6AF5
:1008000060070FD000016251622BEA6A6425E96E2D
:100810006551EA22EF500A0801E0F4D7DF6A600769
:1008200000D0030EDB50060A01E19CD3030A01E16C
:1008300082D3010A01E168D3070A01E1EAD0010A83
:1008400007E0030A04E0010A01E0B7D3B6D3B5D349
:10085000040EDB50040A6CE0070A51E0010A37E09D
:10086000030A1DE0010A01E0D3D0010EF36E0B0E66
:10087000F3CFDBFF070EDB6A020EE66EFA0EE66EC2
:10088000110EE66E000EE66EE6DDE552E552E5522B
:10089000E552010EF36E040EF3CFDBFFB9D0070E65
:1008A000DB5014E0070EDB6A020EE66E0A0EE66EFF
:1008B000120EE66E000EE66ECEDDE552E552E55212
:1008C000E552020EF36E040EF3CFDBFFA1D0070E4C
:1008D000DB5014E0070EDB6A020EE66E1A0EE66EBF
:1008E000120EE66E000EE66EB6DDE552E552E552FA
:1008F000E552030EF36E040EF3CFDBFF89D0070E33
:10090000DB5015E0070EDB6A080EDB6A020EE66EAE
:100910002A0EE66E120EE66E000EE66E9CDDE552C5
:10092000E552E552E552040EF36EF3CFDBFF70D0D3
:10093000070EDB506CE0070EDB6A020EE66E3A0E25
:10094000E66E120EE66E000EE66E85DDE552E552AD
:10095000E552E552020EE66E660E0B6E170E0C6E39
:100960000D6A0BC0E6FF0CC0E6FF0DC0E6FF73DDAD
:10097000E552E552E552E552020EE66E000EE66ED5
:10098000040EE66E28DDE552E552E552020EE66EF3
:10099000620E0B6E170E0C6E0D6A0BC0E6FF0CC0DC
:1009A000E6FF0DC0E6FF57DDE552E552E552E552A0
:1009B000020EE66E800EE66E040EE66E0CDDE5526B
:1009C000E552E552020EE66E660E0B6E170E0C6EC9
:1009D0000D6A0BC0E6FF0CC0E6FF0DC0E6FF3BDD75
:1009E000E552E552E552E552020EE66EEA0EE66E7B
:1009F000110EE66E000EE66E2EDDE552E552E55272
:100A0000E552040EDB6A030EDB6A0B0EDB6A00D0D4
:100A1000D4D2080EDB5001E176D2050EDB50050A78
:100A200001E166D2010A01E150D2070A01E1E2D0F8
:100A3000010A6BE0030A1DE0010A01E064D2070E1F
:100A4000DB6A010EF36E0B0EF3CFDBFF020EE66ED8
:100A5000FA0EE66E110EE66E000EE66EFCDCE55256
:100A6000E552E552E552010EF36E050EF3CFDBFFC2
:100A70004AD2070EDB5048E0070EDB6A020EE66E34
:100A80004A0EE66E120EE66E000EE66EE4DCE552ED
:100A9000E552E552E552020EE66E460EE66E110E86
:100AA000E66E000EE66ED7DCE552E552E552E55201
:100AB000020EE66E4D0EE66E110EE66E000EE66E4E
:100AC000CADCE552E552E552E552020EE66E5F0ED3
:100AD000E66E110EE66E000EE66EBDDCE552E552E6
:100AE000E552E552020EE66EEA0EE66E110EE66E75
:100AF000000EE66EB0DCE552E552E552E552020E1C
:100B0000F36E050EF3CFDBFFFED1070EDB5071E075
:100B1000070EDB6A0A0EDB6A020EE66E5A0EE66EFE
:100B2000120EE66E000EE66E96DCE552E552E552D8
:100B3000E5520D0EDB500EE0020EE66E120EE66E72
:100B4000130EE66E000EE66E86DCE552E552E552C7
:100B5000E5523DD06C0EE66E000EE66ED2EC0AF069
:100B6000E552E552F3CF0BF0F4CF0CF0050E0B1865
:100B700001E10C500EE1020EE66E380EE66E130E29
:100B8000E66E000EE66E67DCE552E552E552E55290
:100B90001ED06C0EE66E000EE66ED2EC0AF0E55248
:100BA000E552F3CF0BF0F4CF0CF0060E0B1801E179
:100BB0000C500DE1020EE66E3C0EE66E130EE66E74
:100BC000000EE66E48DCE552E552E552E552020EB3
:100BD000E66EEA0EE66E110EE66E000EE66E3BDC89
:100BE000E552E552E552E552030EF36E050EF3CFE2
:100BF000DBFF89D1070EDB5001E166D10D0EDB5022
:100C00000EE0020EE66EFE0EE66E120EE66E000EB0
:100C1000E66E21DCE552E552E552E55226D0020EA1
:100C2000E66E220EE66E130EE66E000EE66E13DC26
:100C3000E552E552E552E552020EE66E6C0EE66EA6
:100C4000000EE66EEBEC01F0E552E552E552020EC5
:100C5000E66E2D0EE66E130EE66E000EE66E2BECC3
:100C600002F0E552E552E552E552020EE66EEA0E5A
:100C7000E66E110EE66E000EE66E2BEC02F0E5520B
:100C8000E552E552E552020EE66E7A0EE66E120E5F
:100C9000E66E000EE66E2BEC02F0E552E552E552F0
:100CA000E552020EE66EEA0EE66E110EE66E000EDC
:100CB000E66E2BEC02F0E552E552E552E552020EEB
:100CC000E66E9B0EE66E120EE66E000EE66E2BECE6
:100CD00002F0E552E552E552E552020EE66EEA0EEA
:100CE000E66E110EE66E000EE66E2BEC02F0E5529B
:100CF000E552E552E552020EE66EBC0EE66E120EAD
:100D0000E66E000EE66E2BEC02F0E552E552E5527F
:100D1000E5520D0EDB500FE0020EE66E160EE66E8B
:100D2000130EE66E000EE66E2BEC02F0E552E55275
:100D3000E552E5520ED0020EE66E400EE66E130E40
:100D4000E66E000EE66E2BEC02F0E552E552E5523F
:100D5000E552020EE66EEA0EE66E110EE66E000E2B
:100D6000E66E2BEC02F0E552E552E552E552020E3A
:100D7000E66EDD0EE66E120EE66E000EE66E2BECF3
:100D800002F0E552E552E552E552020EE66EEA0E39
:100D9000E66E110EE66E000EE66E2BEC02F0E552EA
:100DA000E552E552E552020EE66EEA0EE66E110ECF
:100DB000E66E000EE66E2BEC02F0E552E552E552CF
:100DC000E5520D0EDB500FE0020EE66E180EE66ED9
:100DD000130EE66E000EE66E2BEC02F0E552E552C5
:100DE000E552E55235D0020EE66E430EE66E130E66
:100DF000E66E000EE66E2BEC02F0E552E552E5528F
:100E0000E552020EE66E4B0EE66E130EE66E000E17
:100E1000E66E2BEC02F0E552E552E552E552020E89
:100E2000E66E7C0EE66E000EE66EEBEC01F0E5522F
:100E3000E552E552020EE66E530EE66E130EE66EB6
:100E4000000EE66E2BEC02F0E552E552E552E5525B
:100E5000020EE66EEA0EE66E110EE66E000EE66E0D
:100E60002BEC02F0E552E552E552E552020EE66E39
:100E7000EA0EE66E110EE66E000EE66E2BEC02F048
:100E8000E552E552E552E552020EE66EEA0EE66ED6
:100E9000110EE66E000EE66E2BEC02F0E552E55206
:100EA000E552E552020EE66EEA0EE66E110EE66EB1
:100EB000000EE66E2BEC02F0E552E552E552E552EB
:100EC000050EF36EF3CFDBFF1ED0020EE66E6A0E48
:100ED000E66E120EE66E000EE66E2BEC02F0E552A8
:100EE000E552E552E552050EF36EF3CFDBFF0BD072
:100EF0000B0EDB6A0D0EDB6A0A0EDB6A050EDB6A7F
:100F0000030EDB6A00D059D0000EE66E040EE66ECA
:100F1000050E00016225626FE66E64C0E6FF65C0E3
:100F2000E6FF52EC01F00B6E050EE15E0B50030E76
:100F3000DB6ADF6E42D0800EE66E040EE66E050EB2
:100F400000016225626FE66E64C0E6FF65C0E6FFE1
:100F500052EC01F00B6E050EE15E0B50030EDB6AE6
:100F6000DF6E2BD0010EE66ECE0EE66E110EE66E33
:100F7000000EE66E2BEC02F0E552E552E552E5522A
:100F8000010EE66E6C0EE66E000EE66EEBEC01F006
:100F9000E552E552E552010EE66EEA0EE66E110EDE
:100FA000E66E000EE66E2BEC02F0E552E552E552DD
:100FB000E552030EDB6ADF6E00D000016951675D08
:100FC0000FE0ADA2FED700016951692BEA6A6A25DC
:100FD000E96E6B51EA22EF50E66E5AEC0BF0E552E7
:100FE000010EDB50030A01E17BD0010A01E177D059
:100FF000030A0AE0010A01E082D00001665103E021
:10100000DE52010EDD6E7BD0620EE66E110EE66ED4
:10101000000EE66E68C0E6FF6AC0E6FF6BC0E6FF42
:1010200083EC02F00B6E060EE15E0B50000906E049
:10103000010EF36E070EF3CFDBFF4BD0860EE66E8C
:10104000110EE66E000EE66E68C0E6FF6AC0E6FFAF
:101050006BC0E6FF83EC02F00B6E060EE15E0B50F8
:10106000000906E0010EF36E080EF3CFDBFF31D06E
:10107000AA0EE66E110EE66E000EE66E68C0E6FF82
:101080006AC0E6FF6BC0E6FF83EC02F00B6E060E53
:10109000E15E0B5000091DE00C0E68C0DBFF230E63
:1010A0000B6E0C0EDBCFE7FF0B50E7260C0EE7CFE5
:1010B000DBFFDBCFE6FF6C0EE66E000EE66E6AC06D
:1010C000E6FF6BC0E6FF95EC00F00B6E050EE15EEF
:1010D0000B5000016607DE52030EDD6E10D00FD0FC
:1010E00000016851682BEA6A6A25E96E6B51EA22B1
:1010F000EF500A0801E0F4D7010EDB6A00D01AEFC6
:1011000003F0140EE15C02E2E16AE552E16EE552A1
:06111000E7CFD9FF120039
:0A1116007365747570000000636FCC
:101120006E6E6563740075706C6F6164000073733C
:101130006964000000007061737300000000757244
:101140006C000000000022544350222C00226170E9
:10115000692E6D796A736F6E2E636F6D222C003865
:1011600030004F4B0D0A000000000000000000009E
:10117000000000000000000000000000000000006F
:101180000000000000005749464920474F542049BD
:10119000500D0A00000000000000000000000000E8
:1011A000000000000000000000007B227572692230
:1011B0003A22687474703A2F2F6170692E6D796AC3
:1011C000736F6E2E636F6D2F62696E732F0068747C
:1011D00074703A2F2F6170692E6D796A736F6E2E5D
:1011E000636F6D2F62696E732F000D0A000000009F
:1011F0000000000000000000000041540D0A000043
:101200000000000000000000000041542B43574D37
:101210004F44453D310D0A00000041542B525354B8
:101220000D0A000000000000000041542B43574409
:101230004843503D312C310D0A0041542B43574A4D
:1012400041503D0000000000000041542B43495034
:1012500053544152543D0000000041542B43495027
:1012600053454E443D000000000041542B4349507B
:10127000434C4F53450D0A000000484F53543A2049
:101280006170692E6D796A736F6E2E636F6D0000E9
:101290000000000000000000000000434F4E5445D5
:1012A0004E542D545950453A206170706C696361F9
:1012B00074696F6E2F6A736F6E000000434F4E5457
:1012C000454E542D4C454E4754483A2000000000EE
:1012D00000000000000000000000000000434F4E2E
:1012E0004E454354494F4E3A20636C6F736500007E
:1012F0000000000000000000000000000000504F4F
:101300005354202F62696E7320485454502F312E4D
:1013100031003133320039007B2230223A22302230
:101320007D00505554202F62696E732F0020485461
:1013300054502F312E310000313434003134350017
:101340003135007B2200000000000074696D6522C9
:0B1350003A2200227D00000000000097
:04135C00F26AC00E63
:101360009B6E740ED36ECD6A0E01FF910E01F29E3C
:10137000550EA76EAA0EA76EFF910C0EF66F050E06
:10138000D16F070EE76F550EA76EAA0EA76EFF81ED
:10139000C26AC16A0F01499F0F01536BD26A896A01
:1013A0000F0148693F0E926E8A6A170E0F014911AC
:1013B0000F01496F100E936E400E8B6E0F0149970F
:1013C000820E946E0C0EE66EE66A1C0EE66E99ECCA
:1013D0000AF0E552E552E552E40EE66E82EC0BF0BF
:1013E000E5527E9A0C0EE66EE66A1C0EE66E5DEC29
:1013F0000AF0E552E552E552E40EE66E71EC0BF0B0
:10140000E5527C9A080ED56ED76AD66AD09E9E9A0F
:0C1410009D8AA49AA38AF28CF28E12002E
:04141C00060EF66E54
:10142000000EF76E000EF86E00010900F5508C6F8B
:101430000900F5508D6F03E18C6701D03DD00900A4
:10144000F550876F0900F550886F0900F550896FD6
:1014500009000900F550E96E0900F550EA6E09002F
:1014600009000900F5508A6F0900F5508B6F0900DB
:101470000900F6CF8EF0F7CF8FF0F8CF90F087C04D
:10148000F6FF88C0F7FF89C0F8FF00018A5302E128
:101490008B5307E00900F550EE6E8A07F8E28B07E0
:1014A000F9D78EC0F6FF8FC0F7FF90C0F8FF00019C
:0A14B0008C07000E8D5BBFD7120001
:0614BA00D9CFE6FFDACFF6
:1014C000E6FFE1CFD9FFE2CFDAFFA86A9C6AFD0E02
:1014D000DBB0A888DBA202D0A88C9C8CDBB4A88EE1
:1014E000DBA602D09C8801D09C8ADBA802D0A8840D
:1014F00001D0A894DBBA9C86DBAC02D0A38A01D0D1
:10150000A39ADBAE02D0A38801D0A398FB0EDB50D8
:10151000AB6EFC0EDBCF0CF00CC00BF00C6A0B506A
:101520007D6EA88A9C8EE552E5CFDAFFE7CFD9FF22
:021530001200A7
:0E153200D9CFE6FFDACFE6FFE1CFD9FFE2CF57
:10154000DAFFAD6AAC6AFD0EDBB0AD88DBA202D07B
:10155000AD8CAC8CDBB4AD8EDBA602D0AC8801D0F8
:10156000AC8ADBB8AD84DBBAAC86DBAC02D09D8A3A
:1015700001D09D9ADBAE02D09D8801D09D98FB0ED4
:10158000DB50B06EFC0EDBCF0CF00CC00BF00C6A25
:101590000B507F6EAD8AAC8EE552E5CFDAFFE7CF18
:0415A000D9FF12005D
:0C15A400FE0EE3CFE9FFFF0EE3CFEAFFED
:1015B000F36AF46AEE5203E0F34AF42AFBD712000E
:1015C000FF0EE3CFF8FFE552FF0EE3CFF7FFE55242
:1015D000FF0EE3CFF6FFE552E66AE66AE66A090027
:1015E000F55209E0FD0EE32A05E1FE0EE32A02E1D1
:1015F000FF0EE32AF4D7FD0EE3CF05F0FE0EE3CF96
:0A16000006F0FF0EE3CF07F0120022
:06160A00D9CFE6FFDACFA4
:10161000E6FFE1CFD9FFE2CFDAFFE652F20E00019A
:1016200091179CAC03D091919CB091819CB4918511
:101630009CB29187AA50DF6EDF50E552E552E5CFAC
:08164000DAFFE7CFD9FF120029
:08164800D9CFE6FFDACFE6FF7F
:10165000E1CFD9FFE2CFDAFFE652F20E0001921796
:10166000ACAC03D09291ACB09281ACB49285ACB2E8
:101670009287AF50DF6EDF50E552E552E5CFDAFFDB
:06168000E7CFD9FF1200C4
:0A168600D9CFE6FFDACFE6FFE1CF8F
:10169000D9FFE2CFDAFFA8AC04D0A890000191B343
:1016A000A880FD0EDB50A96EE552E5CFDAFFE7CF4B
:0416B000D9FF12004C
:0C16B400D9CFE6FFDACFE6FFE1CFD9FF87
:1016C000E2CFDAFFADAC04D0AD90000192B3AD80B3
:1016D000FD0EDB50AE6EE552E5CFDAFFE7CFD9FF66
:0216E0001200F6
:0E16E200D9CFE6FFDACFE6FFE1CFD9FFE2CFA6
:1016F000DAFFFD0EDB507C6EE552E5CFDAFFE7CF77
:04170000D9FF1200FB
:0C170400D9CFE6FFDACFE6FFE1CFD9FF36
:10171000E2CFDAFFFD0EDB507E6EE552E5CFDAFF59
:06172000E7CFD9FF120023
:0A172600C00EF36E00EE00F00E0E90
:1017300001D81200EA6002D0EE6AFCD7F350E960EB
:061740001200EE6AFCD766
:0A1746001DEE00F02DEE00F0F86A31
:101750000A9C0EEC0AF0B4EC0BF0CCEC02F0FBD7D8
:02176000120075
:06176200222C22002200EF
:0217680012006D
:013FF800AC1C
:013FF900F6D1
:013FFA00D3F3
:013FFD00F8CB
:00000001FF
