:020000040000FA
:0600000030EF0AF01200CF
:020006000000F8
:0800080007EF00F01200DACF4F
:10001000E4FFE2CFDAFFE9CFE4FFEACFE4FFF6CF77
:10002000E4FFF7CFE4FFF5CFE4FFF3CFE4FFF4CF35
:10003000E4FFFACFE4FF00EE00F00B0EE80403E368
:10004000EECFE4FFFBD700EE0BF0020EE80403E373
:10005000EECFE4FFFBD7E6529EAA18D0B1EC09F030
:10006000E66E00016151EA6A6425E96E6551EA2293
:10007000E552E750EF6E6151612BEA6A6425E96E43
:100080006551EA22EF500A0801E1602BA4AA18D0BA
:1000900092EC09F0E66E00016751EA6A6A25E96EA2
:1000A0006B51EA22E552E750EF6E6751672BEA6A1F
:1000B0006A25E96E6B51EA22EF500A0801E1662BCE
:1000C000E55200EE0CF0020EE80403E3E5CFEDFF8D
:1000D000FBD700EE0AF00B0EE80403E3E5CFEDFFDB
:1000E000FBD7E5CFFAFFE5CFF4FFE5CFF3FFE5CF90
:1000F000F5FFE5CFF7FFE5CFF6FFE5CFEAFFE5CF68
:10010000E9FFE5CFDAFF1100D9CFE6FFE1CFD9FF54
:10011000E652000E000177150B6EF00E78150C6E8E
:100120000C380C6A0F0B0B6E0B50DF6E300EDF2697
:10013000DF50390802E2070EDF26FD0EDBCFE9FFB4
:10014000FE0EDBCFEAFFDFCFEFFF000E77150B6E61
:100150000F0E78150C6E0CC00BF00C6A0B50DF6E96
:10016000300EDF26DF50390802E2070EDF26010ECF
:10017000E76EFD0EDBCFE9FFFE0EDBCFEAFFE750B7
:10018000E926000EEA22DFCFEFFFF00E77150B6EA7
:100190000C6A040ED8900C320B32E804FBE10B50D1
:1001A000DF6E300EDF26DF50390802E2070EDF2651
:1001B000020EE76EFD0EDBCFE9FFFE0EDBCFEAFF9E
:1001C000E750E926000EEA22DFCFEFFF0F0E000115
:1001D0007715DF6E300EDF26DF50390802E2070E9A
:1001E000DF26030EE76EFD0EDBCFE9FFFE0EDBCF51
:1001F000EAFFE750E926000EEA22DFCFEFFFE552E3
:10020000E552E7CFD9FF1200D9CFE6FFE1CFD9FF02
:10021000FC0EDB0419E1ADA2FED7FD0EDBCFE9FF3A
:10022000FE0EDBCFEAFFEF50E66EE7EC09F0E55299
:10023000FD0EDB2ADBCFE9FFFE0E01E3DB2ADBCF7D
:10024000EAFFEF50E8E11CD0FC0EDB50020818E199
:10025000A8A2FED7FD0EDBCFE9FFFE0EDBCFEAFF43
:10026000EF50E66ED0EC09F0E552FD0EDB2ADBCF55
:10027000E9FFFE0E01E3DB2ADBCFEAFFEF50E8E106
:10028000E552E7CFD9FF1200D9CFE6FFE1CFD9FF82
:10029000FB0EDB0425E1ADA2FED7FC0EDBCFF6FFA3
:1002A000FD0EDBCFF7FFFE0EDBCFF8FF0800F550A9
:1002B000E66EE7EC09F0E552D950FC0FE96EFF0E4F
:1002C000DA20EA6EEF2AEECFF6FF000EEF22EECF35
:1002D000F7FFEF22EECFF8FF0800F550DCE128D061
:1002E000FB0EDB50020824E1A8A2FED7FC0EDBCFF8
:1002F000F6FFFD0EDBCFF7FFFE0EDBCFF8FF0800A9
:10030000F550E66ED0EC09F0E552D950FC0FE96EDD
:10031000FF0EDA20EA6EEF2AEECFF6FF000EEF2294
:10032000EECFF7FFEF22EECFF8FF0800F550DCE14B
:10033000E552E7CFD9FF1200D9CFE6FFE1CFD9FFD1
:10034000E652F90EDBCFE6FFFA0EDBCFE6FFFB0E3F
:10035000DBCFE6FF6DEC09F0E552E552E5520550C2
:10036000DF6EDF50DF06000929E0FC0EDBCFF3FF74
:10037000DB2AF350E76EFD0EDBCFE9FFFE0EDBCF8D
:10038000EAFFE750E926000EEA22EFCF0BF0D95042
:10039000F90FE96EFF0EDA20EA6EEFCFF6FFEE2AD4
:1003A000EFCFF7FF000EEE22EFCFF8FFEE220800AE
:1003B000F5500B5C02E0000E03D0D3D7010E00D045
:1003C000E552E552E7CFD9FF1200D9CFE6FFE1CFE2
:1003D000D9FF100EE126DF6A010EDB6A020EDB6A2E
:1003E000030EDB6A040EDB6A050EDB6A0A0EDB6AAB
:1003F0000B0EDB6A010EF36E0C0EF3CFDBFF0D0E5E
:10040000DB6A0E0EDB6A50EC08F00001000E646F30
:10041000020E656F616B626B636B606B000E6A6FDF
:10042000030E6B6F676B686B696B666B060EDB6A3E
:10043000070EDB6A080EDB6A090EDB6A0B0EDB6A4D
:100440006C6B6D6B6E6B6F6B706B716B300E726F74
:10045000736F746F756F766B776B786B0001772BAA
:10046000000E7823720EE66E000EE66E4DDEE5524B
:10047000E55200016351615D0FE0ADA2FED70001BE
:100480006351632BEA6A6425E96E6551EA22EF50F5
:10049000E66EE7EC09F0E552DF50030A01E194D083
:1004A000010A65E0030A09E0010A01E09CD00001AD
:1004B000605102E0010EDF6E96D0700EE66E0E0EF9
:1004C000E66E000EE66E62C0E6FF64C0E6FF65C041
:1004D000E6FF32DF0B6E060EE15E0B5000090AE00C
:1004E0000A0EDB5006E1020EF36E030EF3CFDBFFC4
:1004F000DF6E3CD0780EE66E0E0EE66E000EE66EF7
:1005000062C0E6FF64C0E6FF65C0E6FF15DF0B6E64
:10051000060EE15E0B50000909E00A0EDB5005E112
:10052000030EF36EF3CFDBFFDF6E20D0800EE66E9E
:100530000E0EE66E000EE66E62C0E6FF64C0E6FFD9
:1005400065C0E6FFF9DE0B6E060EE15E0B5000099A
:100550000BE00A0EDB5007E10C0EDB6A030EF36EB4
:10056000F3CFDBFFDF6E02D0020EDF6E3CD0000166
:100570006251EA6A6425E96E6551EA22EF500A0881
:1005800010E0A8A2FED700016251622BEA6A64253E
:10059000E96E6551EA22EF50E66ED0EC09F0E552C3
:1005A000E6D7A8A2FED700016251622BEA6A642551
:1005B000E96E6551EA22EF50E66ED0EC09F0E552A3
:1005C000DF6A000160070FD000016251622BEA6A06
:1005D0006425E96E6551EA22EF500A0801E0F4D77C
:1005E000DF6A600700D0030EDB50030A01E1BAD0D6
:1005F000010A07E0030A04E0010A01E05FD35ED3C9
:100600005DD3040EDB50040A6CE0070A51E0010AD6
:1006100037E0030A1DE0010A01E0A3D0010EF36EEA
:100620000A0EF3CFDBFF060EDB6A020EE66E420E09
:10063000E66E0F0EE66E000EE66E26DEE552E55221
:10064000E552E552010EF36E040EF3CFDBFF89D0C5
:10065000060EDB5014E0060EDB6A020EE66E520E4A
:10066000E66E0F0EE66E000EE66E0EDEE552E55209
:10067000E552E552020EF36E040EF3CFDBFF71D0AC
:10068000060EDB5014E0060EDB6A020EE66E620E0A
:10069000E66E0F0EE66E000EE66EF6DDE552E552F2
:1006A000E552E552030EF36E040EF3CFDBFF59D093
:1006B000060EDB5015E0060EDB6A070EDB6A020E43
:1006C000E66E720EE66E0F0EE66E000EE66EDCDD76
:1006D000E552E552E552E552040EF36EF3CFDBFF2F
:1006E00040D0060EDB503CE0060EDB6A020EE66EE2
:1006F000820EE66E0F0EE66E000EE66EC5DDE5526A
:10070000E552E552E552020EE66E880EE66E0E0EDA
:10071000E66E000EE66EB8DDE552E552E552E552B2
:10072000020EE66E990EE66E0E0EE66E000EE66E98
:10073000ABDDE552E552E552E552020EE66E320EB1
:10074000E66E0F0EE66E000EE66E9EDDE552E55299
:10075000E552E552040EDB6A030EDB6A0A0EDB6A21
:1007600000D0ACD2070EDB5001E1A7D2050EDB5062
:10077000050A01E19BD2010A01E185D2070A01E1E4
:10078000B2D0010A6BE0030A1DE0010A01E095D234
:10079000060EDB6A010EF36E0A0EF3CFDBFF020ECC
:1007A000E66E420EE66E0F0EE66E000EE66E6CDD35
:1007B000E552E552E552E552010EF36E050EF3CF18
:1007C000DBFF7BD2060EDB5048E0060EDB6A020E32
:1007D000E66E920EE66E0F0EE66E000EE66E54DDCD
:1007E000E552E552E552E552020EE66EAA0EE66EBD
:1007F0000E0EE66E000EE66E47DDE552E552E5525E
:10080000E552020EE66EB10EE66E0E0EE66E000EBC
:10081000E66E3ADDE552E552E552E552020EE66E2D
:10082000C30EE66E0E0EE66E000EE66E2DDDE55290
:10083000E552E552E552020EE66E320EE66E0F0EFE
:10084000E66E000EE66E20DDE552E552E552E55219
:10085000020EF36E050EF3CFDBFF2FD2060EDB5038
:1008600041E0060EDB6A090EDB6A020EE66EA20E9E
:10087000E66E0F0EE66E000EE66E06DDE552E55200
:10088000E552E5520C0EDB500EE0020EE66E5A0EFB
:10089000E66E100EE66E000EE66EF6DCE552E552F0
:1008A000E552E5520DD0020EE66E800EE66E100E99
:1008B000E66E000EE66EE8DCE552E552E552E552E2
:1008C000020EE66E320EE66E0F0EE66E000EE66E5D
:1008D000DBDCE552E552E552E552030EF36E050E00
:1008E000F3CFDBFFEAD1060EDB5001E1CBD10C0EDA
:1008F000DB500EE0020EE66E460EE66E100EE66E61
:10090000000EE66EC1DCE552E552E552E55224D018
:10091000020EE66E6A0EE66E100EE66E000EE66ED3
:10092000B3DCE552E552E552E552020EE66E6C0E7E
:10093000E66E000EE66E68DCE552E552E552020E08
:10094000E66E750EE66E100EE66E000EE66E9CDC30
:10095000E552E552E552E552020EE66E320EE66EC3
:100960000F0EE66E000EE66E8FDCE552E552E552A4
:10097000E552020EE66EC20EE66E0F0EE66E000E39
:10098000E66E82DCE552E552E552E552020EE66E75
:10099000320EE66E0F0EE66E000EE66E75DCE55268
:1009A000E552E552E552020EE66EE30EE66E0F0EDC
:1009B000E66E000EE66E68DCE552E552E552E55261
:1009C000020EE66E320EE66E0F0EE66E000EE66E5C
:1009D0005BDCE552E552E552E552020EE66E040E8E
:1009E000E66E100EE66E000EE66E4EDCE552E55247
:1009F000E552E5520C0EDB500EE0020EE66E5E0E86
:100A0000E66E100EE66E000EE66E3EDCE552E55236
:100A1000E552E5520DD0020EE66E840EE66E100E23
:100A2000E66E000EE66E30DCE552E552E552E55228
:100A3000020EE66E320EE66E0F0EE66E000EE66EEB
:100A400023DCE552E552E552E552020EE66E250E34
:100A5000E66E100EE66E000EE66E16DCE552E5520E
:100A6000E552E552020EE66E320EE66E0F0EE66EAF
:100A7000000EE66E44EC01F0E552E552E552E55217
:100A8000020EE66E320EE66E0F0EE66E000EE66E9B
:100A900044EC01F0E552E552E552E5520C0EDB5014
:100AA0000FE0020EE66E600EE66E100EE66E000EB1
:100AB000E66E44EC01F0E552E552E552E5526AD0AB
:100AC000020EE66E870EE66E100EE66E000EE66E05
:100AD00044EC01F0E552E552E552E552020EE66EB5
:100AE0008F0EE66E100EE66E000EE66E44EC01F020
:100AF000E552E552E552E552020EE66E720EE66EE2
:100B0000000EE66E04EC01F0E552E552E552020EED
:100B1000E66E970EE66E100EE66E000EE66E44EC84
:100B200001F0E552E552E552E552010EE66E870E00
:100B3000E66E100EE66E000EE66E44EC01F0E55235
:100B4000E552E552E552010EE66E8F0EE66E100E8E
:100B5000E66E000EE66E44EC01F0E552E552E55219
:100B6000E552010EE66E720EE66E000EE66E04ECC5
:100B700001F0E552E552E552010EE66E970EE66E83
:100B8000100EE66E000EE66E44EC01F0E552E55202
:100B9000E552E552020EE66E320EE66E0F0EE66E7E
:100BA000000EE66E44EC01F0E552E552E552E552E6
:100BB000020EE66E320EE66E0F0EE66E000EE66E6A
:100BC00044EC01F0E552E552E552E552020EE66EC4
:100BD000320EE66E0F0EE66E000EE66E44EC01F08D
:100BE000E552E552E552E552020EE66E320EE66E31
:100BF0000F0EE66E000EE66E44EC01F0E552E55293
:100C0000E552E552010EE66E320EE66E0F0EE66E0E
:100C1000000EE66E44EC01F0E552E552E552E55275
:100C2000010EE66E320EE66E0F0EE66E000EE66EFA
:100C300044EC01F0E552E552E552E552010EE66E54
:100C4000320EE66E0F0EE66E000EE66E44EC01F01C
:100C5000E552E552E552E552010EE66E320EE66EC1
:100C60000F0EE66E000EE66E44EC01F0E552E55222
:100C7000E552E5520C0EDB6A090EDB6A050EF36ED7
:100C8000F3CFDBFF1AD0020EE66EB20EE66E0F0E49
:100C9000E66E000EE66E44EC01F0E552E552E552D8
:100CA000E552050EF36EF3CFDBFF07D00A0EDB6AC9
:100CB000050EDB6A030EDB6A00D000D0000169512B
:100CC000675D0FE0ADA2FED700016951692BEA6AAA
:100CD0006A25E96E6B51EA22EF50E66EE7EC09F007
:100CE000E552010EDB50030A01E1A7D0010A01E140
:100CF000A3D0030A0AE0010A01E0AED00001665168
:100D000003E0DE52010EDD6EA7D0C60EE66E0E0EBB
:100D1000E66E000EE66E68C0E6FF6AC0E6FF6BC0D6
:100D2000E6FF9CEC01F00B6E060EE15E0B50000935
:100D300006E0010EF36E060EF3CFDBFF77D0EA0E6E
:100D4000E66E0E0EE66E000EE66E68C0E6FF6AC046
:100D5000E6FF6BC0E6FF9CEC01F00B6E060EE15E59
:100D60000B50000906E0010EF36E070EF3CFDBFF18
:100D70005DD00E0EE66E0F0EE66E000EE66E68C0DB
:100D8000E6FF6AC0E6FF6BC0E6FF9CEC01F00B6E6D
:100D9000060EE15E0B50000949E00B0E68C0DBFF58
:100DA000230E0B6E0B0EDBCFE7FF0B50E7260B0E6F
:100DB000E7CFDBFFDBCFF3FFDB2AF3500001EA6A6A
:100DC0006A25E96E6B51EA22EFCF6CF00B0EDBCF98
:100DD000F3FFDB2AF350EA6A6A25E96E6B51EA22D7
:100DE000EFCF6DF00B0EDBCFF3FFDB2AF350EA6A97
:100DF0006A25E96E6B51EA22EFCF6EF00B0EDBCF66
:100E0000F3FFDB2AF350EA6A6A25E96E6B51EA22A6
:100E1000EFCF6FF00B0EDBCFF3FFDB2AF350EA6A64
:100E20006A25E96E6B51EA22EFCF70F00001660788
:100E3000DE52030EDD6E10D00FD000016851682B1A
:100E4000EA6A6A25E96E6B51EA22EF500A0801E06E
:100E5000F4D7010EDB6A00D02EEF02F0100EE15C39
:100E600002E2E16AE552E16EE552E7CFD9FF1200F6
:100E70007365747570000000636F6E6E6563740057
:100E800075706C6F61640000223136346175627573
:100E9000726E2D322E34222C00226E6F76756C7499
:100EA0007572657332303137220022544350222C40
:100EB00000226170692E6D796A736F6E2E636F6D9B
:100EC000222C003830004F4B0D0A000000000000BB
:100ED0000000000000000000000000000000000012
:100EE000000000000000000000005749464920476C
:100EF0004F542049500D0A0000000000000000007F
:100F000000000000000000000000000000007B2244
:100F1000757269223A22687474703A2F2F61706971
:100F20002E6D796A736F6E2E636F6D2F62696E73AB
:100F30002F000D0A0000000000000000000000006B
:100F4000000041540D0A00000000000000000000F5
:100F5000000041542B43574D4F44453D310D0A008D
:100F6000000041542B5253540D0A000000000000B1
:100F7000000041542B4357444843503D312C310D20
:100F80000A0041542B43574A41503D0000000000E5
:100F9000000041542B43495053544152543D0000EA
:100FA000000041542B43495053454E443D0000003E
:100FB000000041542B434950434C4F53450D0A0008
:100FC0000000484F53543A206170692E6D796A735E
:100FD0006F6E2E636F6D00000000000000000000C7
:100FE000000000434F4E54454E542D545950453A3D
:100FF000206170706C69636174696F6E2F6A736FC2
:101000006E000000434F4E54454E542D4C454E4704
:1010100054483A20000000000000000000000000DA
:101020000000000000434F4E4E454354494F4E3A96
:1010300020636C6F7365000000000000000000007A
:10104000000000000000504F5354202F62696E735F
:1010500020485454502F312E3100313332003900A2
:101060007B2230223A2230227D00505554202F62BC
:10107000696E732F0020485454502F312E310000D8
:10108000313434003135007B220000000000007450
:0F109000696D65223A2200227D000000000000F9
:1010A000F26AC00E9B6E740ED36ECD6A0E01FF9174
:1010B0000E01F29E550EA76EAA0EA76EFF910C0EA2
:1010C000F66F050ED16F550EA76EAA0EA76EFF81A3
:1010D000C26AC16A0F01499F0F01536BD26A896AC4
:1010E0000F0148693F0E926E8A6A170E0F0149116F
:1010F0000F01496F936A400E8B6E0F014997820E64
:10110000946E0C0EE66EE66A1C0EE66E34EC09F088
:10111000E552E552E552E40EE66E0FEC0AF0E552B8
:101120007E9A0C0EE66EE66A1C0EE66EF8EC08F08F
:10113000E552E552E552E40EE66EFEEC09F0E552AA
:101140007C9AD09E9E9A9D8AA49AA38AF28CF28E53
:0211500012008B
:0E115200060EF66E000EF76E000EF86E00012F
:101160000900F5507E6F0900F5507F6F03E17E673F
:1011700001D03DD00900F550796F0900F5507A6F24
:101180000900F5507B6F09000900F550E96E090070
:10119000F550EA6E090009000900F5507C6F09005E
:1011A000F5507D6F09000900F6CF80F0F7CF81F090
:1011B000F8CF82F079C0F6FF7AC0F7FF7BC0F8FF66
:1011C00000017C5302E17D5307E00900F550EE6E0B
:1011D0007C07F8E27D07F9D780C0F6FF81C0F7FFF2
:1011E00082C0F8FF00017E07000E7F5BBFD71200B0
:1011F000D9CFE6FFDACFE6FFE1CFD9FFE2CFDAFFC2
:10120000A86A9C6AFD0EDBB0A888DBA202D0A88C7D
:101210009C8CDBB4A88EDBA602D09C8801D09C8A73
:10122000DBA802D0A88401D0A894DBBA9C86DBACF2
:1012300002D0A38A01D0A39ADBAE02D0A38801D04A
:10124000A398FB0EDB50AB6EFC0EDBCF0CF00CC09A
:101250000BF00C6A0B507D6EA88A9C8EE552E5CF90
:08126000DAFFE7CFD9FF12000D
:08126800D9CFE6FFDACFE6FF63
:10127000E1CFD9FFE2CFDAFFAD6AAC6AFD0EDBB099
:10128000AD88DBA202D0AD8CAC8CDBB4AD8EDBA61E
:1012900002D0AC8801D0AC8ADBB8AD84DBBAAC86B6
:1012A000DBAC02D09D8A01D09D9ADBAE02D09D8836
:1012B00001D09D98FB0EDB50B06EFC0EDBCF0CF026
:1012C0000CC00BF00C6A0B507F6EAD8AAC8EE552F1
:0A12D000E5CFDAFFE7CFD9FF1200E7
:0612DA00FF0EE3CFF8FF58
:1012E000E552FF0EE3CFF7FFE552FF0EE3CFF6FF27
:1012F000E552E66AE66AE66A0900F55209E0FD0E83
:10130000E32A05E1FE0EE32A02E1FF0EE32AF4D709
:10131000FD0EE3CF05F0FE0EE3CF06F0FF0EE3CFA8
:0413200007F01200C0
:0C132400D9CFE6FFDACFE6FFE1CFD9FF1A
:10133000E2CFDAFFE652F20E000183179CAC03D035
:1013400083919CB083819CB483859CB28387AA508F
:10135000DF6EDF50E552E552E5CFDAFFE7CFD9FF88
:02136000120079
:0E136200D9CFE6FFDACFE6FFE1CFD9FFE2CF29
:10137000DAFFE652F20E00018417ACAC03D0849180
:10138000ACB08481ACB48485ACB28487AF50DF6EDE
:10139000DF50E552E552E5CFDAFFE7CFD9FF120083
:1013A000D9CFE6FFDACFE6FFE1CFD9FFE2CFDAFF10
:1013B000A8AC04D0A890000183B3A880FD0EDB5038
:0E13C000A96EE552E5CFDAFFE7CFD9FF1200A4
:0213CE00D9CF75
:1013D000E6FFDACFE6FFE1CFD9FFE2CFDAFFADAC2F
:1013E00004D0AD90000184B3AD80FD0EDB50AE6E35
:0C13F000E552E5CFDAFFE7CFD9FF12008D
:0413FC00D9CFE6FF60
:10140000DACFE6FFE1CFD9FFE2CFDAFFFD0EDB5006
:0E1410007C6EE552E5CFDAFFE7CFD9FF120080
:02141E00D9CF24
:10142000E6FFDACFE6FFE1CFD9FFE2CFDAFFFD0E2C
:10143000DB507E6EE552E5CFDAFFE7CFD9FF120031
:10144000C00EF36E00EE00F00E0E01D81200EA603E
:1014500002D0EE6AFCD7F350E9601200EE6AFCD7C6
:101460001DEE00F02DEE00F0F86A0A9CA9EC08F0E1
:0C1470003EEC0AF0E5EC01F0FBD71200A6
:02147C0012005C
:013FF800AC1C
:013FF900F6D1
:013FFA00D3F3
:013FFD00F8CB
:00000001FF
