:020000040000FA
:0600000046EF15F01200AE
:020006000000F8
:08000800DACFE4FFE2CFDAFFDA
:10001000E9CFE4FFEACFE4FFF6CFE4FFF7CFE4FF58
:10002000F5CFE4FFF3CFE4FFF4CFE4FFFACFE4FF32
:1000300000EE00F00B0EE80403E3EECFE4FFFBD785
:1000400000EE0BF0040EE80403E3EECFE4FFFBD771
:10005000E6529EAA3FD0C7EC14F0E66E62C0E9FFFC
:1000600063C0EAFF010EEB500F6E106A62C0E9FF39
:1000700063C0EAFF040EE926000EEA220F50EE24C8
:10008000E76E1050EE20EA6EE7CFE9FFE552E75049
:10009000EF6E62C0E9FF63C0EAFFEE52EF50EF2A55
:1000A0000F6E106A62C0E9FF63C0EAFF040EE92622
:1000B000000EEA220F50EE24E76E1050EE20EA6E9A
:1000C000E7CFE9FFEF500A0805E162C0E9FF63C02E
:1000D000EAFFEF2AA4AA3FD0A8EC14F0E66E66C0AF
:1000E000E9FF67C0EAFF010EEB500F6E106A66C0B1
:1000F000E9FF67C0EAFF040EE926000EEA220F506E
:10010000EE24E76E1050EE20EA6EE7CFE9FFE552ED
:10011000E750EF6E66C0E9FF67C0EAFFEE52EF50AE
:10012000EF2A0F6E106A66C0E9FF67C0EAFF040E8F
:10013000E926000EEA220F50EE24E76E1050EE2062
:10014000EA6EE7CFE9FFEF500A0805E166C0E9FF74
:1001500067C0EAFFEF2AE55200EE0EF0040EE80455
:1001600003E3E5CFEDFFFBD700EE0AF00B0EE8044A
:1001700003E3E5CFEDFFFBD7E5CFFAFFE5CFF4FFD3
:10018000E5CFF3FFE5CFF5FFE5CFF7FFE5CFF6FFCE
:0E019000E5CFEAFFE5CFE9FFE5CFDAFF11008A
:02019E00D9CFB7
:1001A000E6FFE1CFD9FFFB0EDB0412E1ADA2FED7E3
:1001B000FC0EDBCFF6FFFD0EDBCFF7FFFE0EDBCF35
:1001C000F8FF0800F550E66EFDEC14F0E55215D08E
:1001D000FB0EDB50020811E1A8A2FED7FC0EDBCF1C
:1001E000F6FFFD0EDBCFF7FFFE0EDBCFF8FF0800BA
:1001F000F550E66EE6EC14F0E552E552E7CFD9FF94
:100200001200D9CFE6FFE1CFD9FFFC0EDB040EE1EF
:10021000ADA2FED7FD0EDBCFE9FFFE0EDBCFEAFF7E
:10022000EF50E66EFDEC14F0E55211D0FC0EDB5001
:1002300002080DE1A8A2FED7FD0EDBCFE9FFFE0EFE
:10024000DBCFEAFFEF50E66EE6EC14F0E552E55244
:10025000E7CFD9FF1200D9CFE6FFE1CFD9FFFC0EDF
:10026000DB0419E1ADA2FED7FD0EDBCFE9FFFE0EE8
:10027000DBCFEAFFEF50E66EFDEC14F0E552FD0E29
:10028000DB2ADBCFE9FFFE0E01E3DB2ADBCFEAFF4F
:10029000EF50E8E11CD0FC0EDB50020818E1A8A2E8
:1002A000FED7FD0EDBCFE9FFFE0EDBCFEAFFEF50FE
:1002B000E66EE6EC14F0E552FD0EDB2ADBCFE9FF3B
:1002C000FE0E01E3DB2ADBCFEAFFEF50E8E1E55267
:1002D000E7CFD9FF1200D9CFE6FFE1CFD9FFFB0E60
:1002E000DB0426E1ADA2FED7FC0EDBCFF6FFFD0E50
:1002F000DBCFF7FFFE0EDBCFF8FF0800F550E66E10
:10030000FDEC14F0E552D950FC0FE96EFF0EDA2037
:10031000EA6EEF2AEECFF6FF000EEF22EECFF7FFE8
:10032000000EEF22EECFF8FF0800F550DBE129D0F8
:10033000FB0EDB50020825E1A8A2FED7FC0EDBCFA6
:10034000F6FFFD0EDBCFF7FFFE0EDBCFF8FF080058
:10035000F550E66EE6EC14F0E552D950FC0FE96E6C
:10036000FF0EDA20EA6EEF2AEECFF6FF000EEF2244
:10037000EECFF7FF000EEF22EECFF8FF0800F550AA
:10038000DBE1E552E7CFD9FF1200D9CFE6FFE1CF9D
:10039000D9FFE652F90EDBCFE6FFFA0EDBCFE6FF20
:1003A000FB0EDBCFE6FF0EEC14F0E552E552E55212
:1003B0000550DF6EDF50DF0600092AE0FC0EDBCFC0
:1003C000F3FFDB2AF350E76EFD0EDBCFE9FFFE0EF5
:1003D000DBCFEAFFE750E926000EEA22EFCF0BF071
:1003E000D950F90FE96EFF0EDA20EA6EEFCFF6FF73
:1003F000EE2AEFCFF7FF000EEE22EFCFF8FF000E50
:10040000EE220800F5500B5C02E0000E03D0D2D7BC
:10041000010E00D0E552E552E7CFD9FF1200D9CF47
:10042000E6FFE1CFD9FFFD0EDBCFE9FFFE0EDBCF0C
:10043000EAFFFC0EDBCFEFFF300E0B6EFD0EDBCFC5
:10044000E9FFFE0EDBCFEAFF0B50EF26FD0EDBCF00
:10045000E9FFFE0EDBCFEAFFEF5039080AE2070E94
:100460000B6EFD0EDBCFE9FFFE0EDBCFEAFF0B507C
:10047000EF26E552E7CFD9FF1200D9CFE6FFE1CF53
:10048000D9FF060EE126010EDB6A010EF36E020EA5
:10049000F3CFDBFF0A0EF36E030EF3CFDBFF640E28
:1004A000F36E040EF3CFDBFF020EF36E050EF3CFF7
:1004B000DBFFFC0EDB5053E0DF6AD950020F0B6EFE
:1004C000DACF0CF0050EDB500F010B24E96E000EA5
:1004D0000C20EA6EEF50F36EFC0EDBCFF4FFF3500E
:1004E000F45C1AE3D950020F0B6EDACF0CF0050E54
:1004F000DB500F010B24E96E000E0C20EA6EFC0E9F
:10050000DBCFE7FFEF50E75EFC0EE7CFDBFFDF2A34
:10051000DE52010EDD6ED1D7010EDB5011E0DFCFD0
:10052000E6FFFD0EDBCFE6FFFE0EDBCFE6FF77DF5B
:10053000E552E552E552FD0EDB2AFE0E01E3DB2A11
:10054000050EDBCFF3FFDB06F3500009B5E1FD0E2E
:10055000DBCFE9FFFE0EDBCFEAFFEF6A12D0FD0E24
:10056000DBCFE9FFDB2AFE0EDBCFEAFF01E3DB2A6C
:10057000300EEF6EFD0EDBCFE9FFFE0EDBCFEAFFA4
:10058000EF6A060EE15C02E2E16AE552E16EE552D5
:10059000E7CFD9FF1200D9CFE6FFE1CFD9FFFD0E9B
:1005A000DBCFE9FFFE0EDBCFEAFF020EE926000EED
:1005B000EA22EE50EFCFEAFFE96EEE52EFCF0BF0FA
:1005C000FD0EDBCFE9FFFE0EDBCFEAFF020EE926D0
:1005D000000EEA22EE50EFCFEAFFE96E030EE926A5
:1005E000000EEA22EF500B5C38E0010EE66EFD0EC5
:1005F000DBCFE9FFFE0EDBCFEAFF020EE926000E9D
:10060000EA22EE50EFCFEAFFE96E030EE926000E74
:10061000EA22EF50EF2A0D6E0E6AFD0EDBCFE9FFE6
:10062000FE0EDBCFEAFF020EE926000EEA22EE50B4
:10063000EFCFEAFFE96E040EE926000EEA220D5024
:10064000EE240B6E0E50EE200C6E0BC0E6FF0CC0BD
:10065000E6FFD7DDE552E552E552FD0EDBCFE9FFBF
:10066000FE0EDBCFEAFFEF50030A01E177D2010A69
:1006700001E1F2D1030A1CE0010A01E0BAD2FD0E49
:10068000DBCFE9FFFE0EDBCFEAFF020EE926000E0C
:10069000EA22EE50EFCFEAFFE96EEF5008E0FD0EE0
:1006A000DBCFE9FFFE0EDBCFEAFF010EEF6EA2D239
:1006B000FD0EDBCFE9FFFE0EDBCFEAFFEE52EF507F
:1006C00001E0C9D1780EE66E260EE66E000EE66EEB
:1006D000FD0EDBCFE9FFFE0EDBCFEAFF020EE926BF
:1006E000000EEA22EE50EFCFEAFFE96E020EE92695
:1006F000000EEA22EF50E66EFD0EDBCFE9FFFE0EA4
:10070000DBCFEAFF020EE926000EEA22EE50EFCF21
:10071000EAFFE96E040EE926000EEA22EECFE6FFBC
:10072000EFCFE6FF32DE0B6E060EE15E0B500009E6
:1007300014E00001936BFD0EDBCFE9FFFE0EDBCF73
:10074000EAFFEE52020EEF6EFD0EDBCFE9FFFE0E6A
:10075000DBCFEAFF030EEF6E7ED1800EE66E260E33
:10076000E66E000EE66EFD0EDBCFE9FFFE0EDBCF80
:10077000EAFF020EE926000EEA22EE50EFCFEAFF72
:10078000E96E020EE926000EEA22EF50E66EFD0E3B
:10079000DBCFE9FFFE0EDBCFEAFF020EE926000EFB
:1007A000EA22EE50EFCFEAFFE96E040EE926000ED2
:1007B000EA22EECFE6FFEFCFE6FFE7DD0B6E060E97
:1007C000E15E0B5000091FE0FB0EDBCFE9FFFC0EE2
:1007D000DBCFEAFF020EE926000EEA22EF6A0001F3
:1007E000946BFD0EDBCFE9FFFE0EDBCFEAFFEE528E
:1007F000030EEF6EFD0EDBCFE9FFFE0EDBCFEAFF4F
:10080000030EEF6E28D1880EE66E260EE66E000E01
:10081000E66EFD0EDBCFE9FFFE0EDBCFEAFF020E38
:10082000E926000EEA22EE50EFCFEAFFE96E020E53
:10083000E926000EEA22EF50E66EFD0EDBCFE9FF5F
:10084000FE0EDBCFEAFF020EE926000EEA22EE5092
:10085000EFCFEAFFE96E040EE926000EEA22EECFA2
:10086000E6FFEFCFE6FF91DD0B6E060EE15E0B506B
:1008700000091EE0FB0EDBCFE9FFFC0EDBCFEAFF39
:10088000020EE926000EEA22020EEF6EFD0EDBCF0D
:10089000E9FFFE0EDBCFEAFFEE52030EEF6EFD0E18
:1008A000DBCFE9FFFE0EDBCFEAFF030EEF6ED3D006
:1008B000900EE66E260EE66E000EE66EFD0EDBCFA7
:1008C000E9FFFE0EDBCFEAFF020EE926000EEA2268
:1008D000EE50EFCFEAFFE96E020EE926000EEA22A3
:1008E000EF50E66EFD0EDBCFE9FFFE0EDBCFEAFF39
:1008F000020EE926000EEA22EE50EFCFEAFFE96E83
:10090000040EE926000EEA22EECFE6FFEFCFE6FF67
:100910003CDD0B6E060EE15E0B5000090AE0FD0E99
:10092000DBCFE9FFFE0EDBCFEAFFEE52040EEF6EE7
:1009300092D0980EE66E260EE66E000EE66EFD0E66
:10094000DBCFE9FFFE0EDBCFEAFF020EE926000E49
:10095000EA22EE50EFCFEAFFE96E020EE926000E22
:10096000EA22EF50E66EFD0EDBCFE9FFFE0EDBCF95
:10097000EAFF020EE926000EEA22EE50EFCFEAFF70
:10098000E96E040EE926000EEA22EECFE6FFEFCF75
:10099000E6FFFBDC0B6E060EE15E0B5000090AE081
:1009A000FD0EDBCFE9FFFE0EDBCFEAFFEE52050EB8
:1009B000EF6E51D0A00EE66E260EE66E000EE66ECD
:1009C000FD0EDBCFE9FFFE0EDBCFEAFF020EE926CC
:1009D000000EEA22EE50EFCFEAFFE96E020EE926A2
:1009E000000EEA22EF50E66EFD0EDBCFE9FFFE0EB1
:1009F000DBCFEAFF020EE926000EEA22EE50EFCF2F
:100A0000EAFFE96E040EE926000EEA22EECFE6FFC9
:100A1000EFCFE6FFBADC0B6E060EE15E0B5000096D
:100A200012E0FD0EDBCFE9FFFE0EDBCFEAFFEE5258
:100A3000060EEF6EFD0EDBCFE9FFFE0EDBCFEAFF09
:100A4000030EEF6E08D0FD0EDBCFE9FFFE0EDBCF0D
:100A5000EAFF020EEF6ECED0020EE66EFD0EDBCF89
:100A6000E9FFFE0EDBCFEAFF020EE926000EEA22C6
:100A7000EE50EFCFEAFFE96E020EE926000EEA2201
:100A8000EF500D6E0E6AFD0EDBCFE9FFFE0EDBCFE1
:100A9000EAFF020EE926000EEA22EE50EFCFEAFF4F
:100AA000E96E040EE926000EEA220D50EE240B6ECC
:100AB0000E50EE200C6E0BC0E6FF0CC0E6FF01EC02
:100AC00001F0E552E552E552FD0EDBCFE9FFFE0EE7
:100AD000DBCFEAFF020EE926000EEA22EE50EFCF4E
:100AE000EAFFE96E020EE926000EEA22EF50EF2A35
:100AF0000B6E0C6AFD0EDBCFE9FFFE0EDBCFEAFFCB
:100B0000020EE926000EEA22EE50EFCFEAFFE96E70
:100B1000040EE926000EEA220B50EE24E76E0C507C
:100B2000EE20EA6EE7CFE9FFEF500A0895E1FD0EEF
:100B3000DBCFE9FFFE0EDBCFEAFFEF6AFD0EDBCF76
:100B4000E9FFFE0EDBCFEAFF020EE926000EEA22E5
:100B5000EE50EFCFEAFFE96EEF064CD0FD0EDBCF93
:100B6000E9FFFE0EDBCFEAFF020EE926000EEA22C5
:100B7000EE50EFCFEAFFE96E020EE926000EEA2200
:100B8000EF50EF2A0B6E0C6AFD0EDBCFE9FFFE0E75
:100B9000DBCFEAFF020EE926000EEA22EE50EFCF8D
:100BA000EAFFE96E040EE926000EEA220B50EE245D
:100BB000E76E0C50EE20EA6EE7CFE9FFEF500A082F
:100BC00001E0CCD7FD0EDBCFE9FFFE0EDBCFEAFF65
:100BD000EF6AFD0EDBCFE9FFFE0EDBCFEAFF020E70
:100BE000E926000EEA22EE50EFCFEAFFE96EEF06AB
:100BF00001D000D0FD0EDBCFE9FFFE0EDBCFEAFF18
:100C0000EE52EF50060A01E131D2030A01E1DCD1D4
:100C1000010A01E187D1070A01E1BAD0010A07E020
:100C2000030A04E0010A01E070D270D26FD2000121
:100C30009351040A6DE0070A46E0010A2DE0030A19
:100C400011E0010A01E0A2D0FB0EDBCFE9FFFC0EB0
:100C5000DBCFEAFFEE52EF6AEDEC0AF00001010E85
:100C6000936F95D0FB0EDBCFE9FFFC0EDBCFEAFFE5
:100C7000EE52EF5010E0FB0EDBCFE9FFFC0EDBCFB6
:100C8000EAFFEE52EF6A010EE66EFCEC0AF0E55266
:100C90000001020E936F7BD0FB0EDBCFE9FFFC0E51
:100CA000DBCFEAFFEE52EF500DE0FB0EDBCFE9FFAA
:100CB000FC0EDBCFEAFFEE52EF6A37EC0BF00001DF
:100CC000030E936F64D0FB0EDBCFE9FFFC0EDBCF8E
:100CD000EAFFEE52EF501BE0FB0EDBCFE9FFFC0E0C
:100CE000DBCFEAFFEE52EF6AFB0EDBCFE9FFFC0E33
:100CF000DBCFEAFF010EEF6E010EE66E010EE66E2F
:100D000046EC0BF0E552E5520001040E936F3FD024
:100D1000FB0EDBCFE9FFFC0EDBCFEAFFEE52EF501C
:100D200034E0FB0EDBCFE9FFFC0EDBCFEAFFEE5237
:100D3000EF6AFB0EDBCFE9FFFC0EDBCFEAFF050E0F
:100D4000E926000EEA22EECFE6FFEFCFE6FFFB0E2C
:100D5000DBCFE9FFFC0EDBCFEAFF030EE926000E36
:100D6000EA22EECFE6FFEFCFE6FFABEC0BF0E55269
:100D7000E552E552E5520001936BFD0EDBCFE9FF32
:100D8000FE0EDBCFEAFFEE52EF6A01D000D0BED1FB
:100D9000FB0EDBCFE9FFFC0EDBCFEAFFEF0401E047
:100DA000C0D000019451050A01E1AFD0010A01E170
:100DB000A6D0070A01E184D0010A2AE0030A11E063
:100DC000010A01E0ADD0FB0EDBCFE9FFFC0EDBCF6B
:100DD000EAFFEE52EF6AEDEC0AF00001010E946FAB
:100DE000A0D0FB0EDBCFE9FFFC0EDBCFEAFFEE521B
:100DF000EF500DE0FB0EDBCFE9FFFC0EDBCFEAFF8F
:100E0000EE52EF6A22EC0CF00001020E946F89D0D2
:100E1000FB0EDBCFE9FFFC0EDBCFEAFFEE52EF501B
:100E20004EE0FB0EDBCFE9FFFC0EDBCFEAFFEE521C
:100E3000EF6AFB0EDBCFE9FFFC0EDBCFEAFF020E11
:100E4000E926000EEA22EF50E66EFB0EDBCFE9FF4B
:100E5000FC0EDBCFEAFF070EE926000EEA22EE5079
:100E6000EFCFEAFFE96EE552E750EF6EFB0EDBCF06
:100E7000E9FFFC0EDBCFEAFF070EE926000EEA22AF
:100E8000EECFE6FFEFCFE6FFB3EC0CF0E552E55214
:100E9000FB0EDBCFE9FFFC0EDBCFEAFF070EE926F6
:100EA000000EEA22EE50EFCFEAFFE96EEE52EF506D
:100EB000E66E69EC0CF0E5520001030E946F31D040
:100EC000FB0EDBCFE9FFFC0EDBCFEAFFEE52EF506B
:100ED00015E0FB0EDBCFE9FFFC0EDBCFEAFF070ED0
:100EE000E926000EEA22EECFE6FFEFCFE6FF82EC26
:100EF0000FF0E552E5520001050E946F12D0A4ECFC
:100F00000CF00001050E946F0CD00001946BFD0EE7
:100F1000DBCFE9FFFE0EDBCFEAFFEE52EF6A01D036
:100F200000D0F4D0FB0EDBCFE9FFFC0EDBCFEAFFF5
:100F3000030EE926000EEA22EECFE6FFEFCFE6FF32
:100F4000050E0B6EFD0EDBCFE9FFFE0EDBCFEAFFD9
:100F5000020EE926000EEA22EE50EFCFEAFFE96E1C
:100F6000020EE926000EEA220B50EF26EF50E66E45
:100F7000FD0EDBCFE9FFFE0EDBCFEAFF020EE92616
:100F8000000EEA22EE50EFCFEAFFE96E040EE926EA
:100F9000000EEA22EECFE6FFEFCFE6FFE1DA0C6EBD
:100FA000050EE15E0C50FD0EDBCFE9FFFE0EDBCF40
:100FB000EAFFEE52EF6AFD0EDBCFE9FFFE0EDBCF5C
:100FC000EAFF030EEF6EA2D0FB0EDBCFE9FFFC0EB3
:100FD000DBCFEAFF050EE926000EEA22EECFE6FFA0
:100FE000EFCFE6FF050E0B6EFD0EDBCFE9FFFE0E29
:100FF000DBCFEAFF020EE926000EEA22EE50EFCF29
:10100000EAFFE96E020EE926000EEA220B50EF26F7
:10101000EF50E66EFD0EDBCFE9FFFE0EDBCFEAFF01
:10102000020EE926000EEA22EE50EFCFEAFFE96E4B
:10103000040EE926000EEA22EECFE6FFEFCFE6FF30
:101040008FDA0C6E050EE15E0C50FD0EDBCFE9FF72
:10105000FE0EDBCFEAFFEE52EF6AFD0EDBCFE9FFBB
:10106000FE0EDBCFEAFF030EEF6E50D0010EE66EF0
:10107000140EE66E270EE66E000EE66E6BEC01F0C7
:10108000E552E552E552E552010EE66EFB0EDBCF6E
:10109000E9FFFC0EDBCFEAFF070EE926000EEA228D
:1010A000EE50EFCFEAFFE96E030EE926000EEA22CA
:1010B000EECFE6FFEFCFE6FF2BEC01F0E552E55275
:1010C000E552010EE66EB40E0B6E2A0E0C6E0D6A22
:1010D0000BC0E6FF0CC0E6FF0DC0E6FF6BEC01F0B5
:1010E000E552E552E552E552FD0EDBCFE9FFFE0E7B
:1010F000DBCFEAFFEE52EF6AFD0EDBCFE9FFFE0E1B
:10110000DBCFEAFF030EEF6E01D000D0E552E7CF50
:10111000D9FF1200D9CFE6FFE1CFD9FFFD0EDBCF1B
:10112000E9FFFE0EDBCFEAFF020EE926000EEA22FF
:10113000EE50EFCFEAFFE96EEE52EFCF0BF0FD0E6F
:10114000DBCFE9FFFE0EDBCFEAFF020EE926000E41
:10115000EA22EE50EFCFEAFFE96E030EE926000E19
:10116000EA22EF500B5C39E0010EE66EFD0EDBCF9C
:10117000E9FFFE0EDBCFEAFF020EE926000EEA22AF
:10118000EE50EFCFEAFFE96E030EE926000EEA22E9
:10119000EF50EF2A0D6E0E6AFD0EDBCFE9FFFE0E5B
:1011A000DBCFEAFF020EE926000EEA22EE50EFCF77
:1011B000EAFFE96E040EE926000EEA220D50EE2445
:1011C0000B6E0E50EE200C6E0BC0E6FF0CC0E6FF5F
:1011D00001EC01F0E552E552E552FD0EDBCFE9FFEF
:1011E000FE0EDBCFEAFFEF50030A01E12CD1010A2A
:1011F00001E128D1030A1CE0010A01E06FD1FD0ED4
:10120000DBCFE9FFFE0EDBCFEAFF020EE926000E80
:10121000EA22EE50EFCFEAFFE96EEF5008E0FD0E54
:10122000DBCFE9FFFE0EDBCFEAFF010EEF6E57D1F9
:10123000A80EE66E260EE66E000EE66EFD0EDBCF05
:10124000E9FFFE0EDBCFEAFF020EE926000EEA22DE
:10125000EE50EFCFEAFFE96E020EE926000EEA2219
:10126000EF50E66EFD0EDBCFE9FFFE0EDBCFEAFFAF
:10127000020EE926000EEA22EE50EFCFEAFFE96EF9
:10128000040EE926000EEA22EECFE6FFEFCFE6FFDE
:10129000C5EC01F00B6E060EE15E0B5000090AE092
:1012A000FB0EDBCFE9FFFC0EDBCFEAFFEE52010EB7
:1012B000EF6EBFD0CC0EE66E260EE66E000EE66E2A
:1012C000FD0EDBCFE9FFFE0EDBCFEAFF020EE926C3
:1012D000000EEA22EE50EFCFEAFFE96E020EE92699
:1012E000000EEA22EF50E66EFD0EDBCFE9FFFE0EA8
:1012F000DBCFEAFF020EE926000EEA22EE50EFCF26
:10130000EAFFE96E040EE926000EEA22EECFE6FFC0
:10131000EFCFE6FFC5EC01F00B6E060EE15E0B5061
:10132000000909E0FB0EDBCFE9FFFC0EDBCFEAFF93
:10133000010EEF6E7ED0F00EE66E260EE66E000E0B
:10134000E66EFD0EDBCFE9FFFE0EDBCFEAFF020EFD
:10135000E926000EEA22EE50EFCFEAFFE96E020E18
:10136000E926000EEA22EF50E66EFD0EDBCFE9FF24
:10137000FE0EDBCFEAFF020EE926000EEA22EE5057
:10138000EFCFEAFFE96E040EE926000EEA22EECF67
:10139000E6FFEFCFE6FFC5EC01F00B6E060EE15E57
:1013A0000B50000946E0FD0EDBCFE9FFFE0EDBCF60
:1013B000EAFF020EE926000EEA22EE50EFCFEAFF26
:1013C000E96E020EE926000EEA22EF50230FE66EC8
:1013D000FB0EDBCFE9FFFC0EDBCFEAFF070EE926B1
:1013E000000EEA22EE50EFCFEAFFE96E030EE92687
:1013F000000EEA22EECFE6FFEFCFE6FFFD0EDBCFD9
:10140000E9FFFE0EDBCFEAFF020EE926000EEA221C
:10141000EE50EFCFEAFFE96E040EE926000EEA2255
:10142000EECFE6FFEFCFE6FF5ED80B6E050EE15E76
:101430000B50FD0EDBCFE9FFFE0EDBCFEAFF030E04
:10144000EF6E4DD04CD0FD0EDBCFE9FFFE0EDBCFB3
:10145000EAFF020EE926000EEA22EE50EFCFEAFF85
:10146000E96E020EE926000EEA22EF50EF2A0B6E1B
:101470000C6AFD0EDBCFE9FFFE0EDBCFEAFF020EAA
:10148000E926000EEA22EE50EFCFEAFFE96E040EE5
:10149000E926000EEA220B50EE24E76E0C50EE20F7
:1014A000EA6EE7CFE9FFEF500A0801E0CCD7FD0E66
:1014B000DBCFE9FFFE0EDBCFEAFFEF6AFD0EDBCFED
:1014C000E9FFFE0EDBCFEAFF020EE926000EEA225C
:1014D000EE50EFCFEAFFE96EEF0601D000D0E55203
:1014E000E7CFD9FF1200D9CFE6FFE1CFD9FFFA0E3F
:1014F000DBCFF3FFDB2AF350E76EFD0EDBCFE9FF16
:10150000FE0EDBCFEAFFE750E926000EEA22EF509D
:10151000E66EFB0EDBCFE9FFDB2AFC0EDBCFEAFF3A
:1015200001E3DB2AE552E750EF6EFA0EDB50E76E7F
:10153000FD0EDBCFE9FFFE0EDBCFEAFFE750E92629
:10154000000EEA22EF502208D2E1FB0EDBCFE9FFCA
:10155000FC0EDBCFEAFFEF6AE552E7CFD9FF1200BE
:10156000D9CFE6FFE1CFD9FFFC0EDBCFF3FFDB2ABB
:10157000F350E76EFD0EDBCFE9FFFE0EDBCFEAFF97
:10158000E750E926000EEA22EF50E66EFA0EDBCFB6
:10159000E9FFDB2AFB0EDBCFEAFF01E3DB2AE552A2
:1015A000E750EF6EFC0EDB50E76EFD0EDBCFE9FF80
:1015B000FE0EDBCFEAFFE750E926000EEA22EF50ED
:1015C0000D08D2E1FA0EDBCFE9FFFB0EDBCFEAFF1D
:0A15D000EF6AE552E7CFD9FF1200E1
:0615DA00020EE66E8E0E0B
:1015E000E66E240EE66E000EE66E6BEC01F0E55240
:1015F000E552E552E5521200D9CFE6FFE1CFD9FF1F
:10160000020EE66E9E0EE66E240EE66E000EE66E8E
:101610006BEC01F0E552E552E552E552FE0EDBCFF0
:10162000E6FF8B0EE66E000EE66E3DEC02F0E55234
:10163000E552E552020EE66E8B0EE66E000EE66E89
:101640002BEC01F0E552E552E552020EE66E7E0EFD
:10165000E66E240EE66E000EE66E6BEC01F0E552CF
:10166000E552E552E552E552E7CFD9FF1200020EEE
:10167000E66EAE0EE66E240EE66E000EE66E6BECC7
:1016800001F0E552E552E552E5521200D9CFE6FFEE
:10169000E1CFD9FF020EE66EBE0EE66E240EE66EB8
:1016A000000EE66E6BEC01F0E552E552E552E552B4
:1016B000FE0EDBCFE6FF8B0EE66E000EE66E3DEC17
:1016C00002F0E552E552E552020EE66E8B0EE66E32
:1016D000000EE66E2BEC01F0E552E552E552020EEB
:1016E000E66EB20E0B6E2A0E0C6E0D6A0BC0E6FF94
:1016F0000CC0E6FF0DC0E6FF6BEC01F0E552E552D1
:10170000E552E552FD0EDBCFE6FF8B0EE66E000ED6
:10171000E66E3DEC02F0E552E552E552020EE66E51
:101720008B0EE66E000EE66E2BEC01F0E552E552F4
:10173000E552020EE66E7E0EE66E240EE66E000E9A
:10174000E66E6BEC01F0E552E552E552E552E552EA
:10175000E7CFD9FF1200D9CFE6FFE1CFD9FF020EC4
:10176000E66ECE0EE66E240EE66E000EE66E6BECB6
:1017700001F0E552E552E552E552020EE66EB00E7A
:101780000B6E2A0E0C6E0D6A0BC0E6FF0CC0E6FF56
:101790000DC0E6FF6BEC01F0E552E552E552E55273
:1017A000020EE66EFD0EDBCFE6FFFE0EDBCFE6FFA0
:1017B0002BEC01F0E552E552E552020EE66EAC0E5E
:1017C0000B6E2A0E0C6E0D6A0BC0E6FF0CC0E6FF16
:1017D0000DC0E6FF6BEC01F0E552E552E552E55233
:1017E000020EE66EFB0EDBCFE6FFFC0EDBCFE6FF64
:1017F0002BEC01F0E552E552E552020EE66EB00E1A
:101800000B6E2A0E0C6E0D6A0BC0E6FF0CC0E6FFD5
:101810000DC0E6FF6BEC01F0E552E552E552E552F2
:10182000020EE66E7E0EE66E240EE66E000EE66E8C
:101830006BEC01F0E552E552E552E552E552E7CF97
:10184000D9FF1200020EE66EDE0EE66E240EE66E84
:10185000000EE66E6BEC01F0E552E552E552E55202
:10186000020EE66E620EE66E240EE66E000EE66E68
:101870006BEC01F0E552E552E552E552020EE66EE0
:10188000690EE66E240EE66E000EE66E6BEC01F05D
:10189000E552E552E552E552020EE66E7B0EE66E2B
:1018A000240EE66E000EE66E6BEC01F0E552E5529A
:1018B000E552E552020EE66E7E0EE66E240EE66EF0
:1018C000000EE66E6BEC01F0E552E552E552E55292
:1018D0001200D9CFE6FFE1CFD9FFFE0EDBCFE6FF46
:1018E0008F0EE66E000EE66E3DEC02F0E552E5521C
:1018F000E552020EE66EEE0EE66E240EE66E000E69
:10190000E66E6BEC01F0E552E552E552E552020E4F
:10191000E66E8F0EE66E000EE66E2BEC01F0E552E1
:10192000E552E552020EE66E7E0EE66E240EE66E7F
:10193000000EE66E6BEC01F0E552E552E552E55221
:10194000E552E7CFD9FF1200020EE66EFE0EE66EFC
:10195000240EE66E000EE66E6BEC01F0E552E552E9
:10196000E552E5521200D9CFE6FFE1CFD9FF060ECE
:10197000E126AD0EE66E250EE66E000EE66E0EEC6E
:1019800014F0E552E552E5520550E66EFD0EDBCF50
:10199000E9FFFE0EDBCFEAFF020EE926000EEA2287
:1019A000E552E750EF6EFD0EDBCFE9FFFE0EDBCF19
:1019B000EAFFEE52EF6AFD0EDBCFE9FFFE0EDBCF52
:1019C000EAFFEF5059E1110EE66E250EE66E000EAD
:1019D000E66E0EEC14F0E552E552E55205C00BF050
:1019E000FD0EDBCFE9FFFE0EDBCFEAFFEE520B5020
:1019F000EF26A70EE66E250EE66E000EE66E0EECE6
:101A000014F0E552E552E55205C00BF0FD0EDBCFB8
:101A1000E9FFFE0EDBCFEAFFEE520B50EF26230E5E
:101A2000E66E250EE66E000EE66E0EEC14F0E55244
:101A3000E552E55205C00BF0FD0EDBCFE9FFFE0ECF
:101A4000DBCFEAFFEE520B50EF260E0EE66E250EB0
:101A5000E66E000EE66E0EEC14F0E552E552E5522D
:101A600005C00BF0FD0EDBCFE9FFFE0EDBCFEAFF7A
:101A7000EE520B50EF269AD0FD0EDBCFE9FFFE0EA3
:101A8000DBCFEAFFEF50020801E090D01D0EE66EBA
:101A9000250EE66E000EE66E0EEC14F0E552E552F1
:101AA000E55205C00BF0FD0EDBCFE9FFFE0EDBCFEC
:101AB000EAFFEE520B50EF26A70EE66E250EE66EFD
:101AC000000EE66E0EEC14F0E552E552E55205C04C
:101AD0000BF0FD0EDBCFE9FFFE0EDBCFEAFFEE528F
:101AE0000B50EF26AA0E0C6E2A0E0D6E0E6A0CC05D
:101AF000E6FF0DC0E6FF0EC0E6FF0EEC14F0E55267
:101B0000E552E55205C00BF0FD0EDBCFE9FFFE0EFE
:101B1000DBCFEAFFEE520B50EF26FD0EDBCFE9FFE5
:101B2000FE0EDBCFEAFF030EE926000EEA22EECF1F
:101B3000E6FFEFCFE6FF00EC14F0E552E552F3CFFD
:101B40000BF0FD0EDBCFE9FFFE0EDBCFEAFFEE521E
:101B50000B50EF26230EE66E250EE66E000EE66EA7
:101B60000EEC14F0E552E552E55205C00BF0FD0E07
:101B7000DBCFE9FFFE0EDBCFEAFFEE520B50EF2684
:101B80000E0EE66E250EE66E000EE66E0EEC14F0FE
:101B9000E552E552E55205C00BF0FD0EDBCFE9FF43
:101BA000FE0EDBCFEAFFEE520B50EF262D0EE66E57
:101BB000250EE66E000EE66E0EEC14F0E552E552D0
:101BC000E55205C00BF0FD0EDBCFE9FFFE0EDBCFCB
:101BD000EAFFEE520B50EF26710EE66E250EE66E12
:101BE000000EE66E0EEC14F0E552E552E55205C02B
:101BF0000BF0FD0EDBCFE9FFFE0EDBCFEAFFEE526E
:101C00000B50EF260E0EE66E250EE66E000EE66E0B
:101C10000EEC14F0E552E552E55205C00BF0FD0E56
:101C2000DBCFE9FFFE0EDBCFEAFFEE520B50EF26D3
:101C30003E0EE66E250EE66E000EE66E0EEC14F01D
:101C4000E552E552E55205C00BF0FD0EDBCFE9FF92
:101C5000FE0EDBCFEAFFEE520B50EF26800EE66E53
:101C6000250EE66E000EE66E0EEC14F0E552E5521F
:101C7000E55205C00BF0FD0EDBCFE9FFFE0EDBCF1A
:101C8000EAFFEE520B50EF260E0EE66E250EE66EC4
:101C9000000EE66E0EEC14F0E552E552E55205C07A
:101CA0000BF0FD0EDBCFE9FFFE0EDBCFEAFFEE52BD
:101CB0000B50EF264F0EE66E250EE66E000EE66E1A
:101CC0000EEC14F0E552E552E55205C00BF0FD0EA6
:101CD000DBCFE9FFFE0EDBCFEAFFEE520B50EF2623
:101CE000FD0EDBCFE9FFFE0EDBCFEAFF020EE92699
:101CF000000EEA22EF50E66ED950030FE66E000E9A
:101D0000DA20E66E3DEC02F0E552E552E552D9509C
:101D1000030FE66E000EDA20E66E00EC14F0E552DA
:101D2000E552F3CF0BF0FD0EDBCFE9FFFE0EDBCF6C
:101D3000EAFFEE520B50EF260E0EE66E250EE66E13
:101D4000000EE66E0EEC14F0E552E552E55205C0C9
:101D50000BF0FD0EDBCFE9FFFE0EDBCFEAFFEE520C
:101D60000B50EF26600EE66E250EE66E000EE66E58
:101D70000EEC14F0E552E552E55205C00BF0FD0EF5
:101D8000DBCFE9FFFE0EDBCFEAFFEE520B50EF2672
:101D9000910EE66E250EE66E000EE66E0EEC14F069
:101DA000E552E552E55205C00BF0FD0EDBCFE9FF31
:101DB000FE0EDBCFEAFFEE520B50EF260E0EE66E64
:101DC000250EE66E000EE66E0EEC14F0E552E552BE
:101DD000E55205C00BF0FD0EDBCFE9FFFE0EDBCFB9
:101DE000EAFFEE520B50EF260E0EE66E250EE66E63
:101DF000000EE66E0EEC14F0E552E552E55205C019
:101E00000BF0FD0EDBCFE9FFFE0EDBCFEAFFEE525B
:101E10000B50EF26AD0EE66E250EE66E000EE66E5A
:101E20000EEC14F0E552E552E55205C00BF0FD0E44
:101E3000DBCFE9FFFE0EDBCFEAFFEE520B50EF26C1
:101E40000E0EE66E250EE66E000EE66E0EEC14F03B
:101E5000E552E552E55205C00BF0FD0EDBCFE9FF80
:101E6000FE0EDBCFEAFFEE520B50EF260E0EE66EB3
:101E7000250EE66E000EE66E0EEC14F0E552E5520D
:101E8000E55205C00BF0FD0EDBCFE9FFFE0EDBCF08
:101E9000EAFFEE520B50EF260E0EE66E250EE66EB2
:101EA000000EE66E0EEC14F0E552E552E55205C068
:101EB0000BF0FD0EDBCFE9FFFE0EDBCFEAFFEE52AB
:101EC0000B50EF260E0EE66E250EE66E000EE66E49
:101ED0000EEC14F0E552E552E55205C00BF0FD0E94
:101EE000DBCFE9FFFE0EDBCFEAFFEE520B50EF2611
:101EF000060EE15C02E2E16AE552E16EE552E7CFEF
:101F0000D9FF1200D9CFE6FFE1CFD9FF030EE126BA
:101F1000FD0EDBCFE9FFFE0EDBCFEAFFEF5039E12C
:101F2000020EE66E110EE66E250EE66E000EE66EF1
:101F30006BEC01F0E552E552E552E552020EE66E19
:101F4000A70EE66E250EE66E000EE66E6BEC01F057
:101F5000E552E552E552E552020EE66E230EE66EBC
:101F6000250EE66E000EE66E6BEC01F0E552E552D2
:101F7000E552E552020EE66E0E0EE66E250EE66E98
:101F8000000EE66E6BEC01F0E552E552E552E552CB
:101F900069D0FD0EDBCFE9FFFE0EDBCFEAFFEF508D
:101FA000020860E1020EE66E1D0EE66E250EE66E7C
:101FB000000EE66E6BEC01F0E552E552E552E5529B
:101FC000020EE66EA70EE66E250EE66E000EE66EBB
:101FD0006BEC01F0E552E552E552E552020EE66E79
:101FE000AA0E0B6E2A0E0C6E0D6A0BC0E6FF0CC01B
:101FF000E6FF0DC0E6FF6BEC01F0E552E552E5525D
:10200000E552020EE66EFD0EDBCFE9FFFE0EDBCFE2
:10201000EAFF030EE926000EEA22EECFE6FFEFCF3D
:10202000E6FF2BEC01F0E552E552E552020EE66EBA
:10203000230EE66E250EE66E000EE66E6BEC01F0EA
:10204000E552E552E552E552020EE66E0E0EE66EE0
:10205000250EE66E000EE66E6BEC01F0E552E552E1
:10206000E552E552020EE66E2D0EE66E250EE66E88
:10207000000EE66E6BEC01F0E552E552E552E552DA
:10208000020EE66E710EE66E250EE66E000EE66E30
:102090006BEC01F0E552E552E552E552020EE66EB8
:1020A0000E0EE66E250EE66E000EE66E6BEC01F08F
:1020B000E552E552E552E552020EE66E3E0EE66E40
:1020C000250EE66E000EE66E6BEC01F0E552E55271
:1020D000E552E552020EE66E800EE66E250EE66EC5
:1020E000000EE66E6BEC01F0E552E552E552E5526A
:1020F000020EE66E0E0EE66E250EE66E000EE66E23
:102100006BEC01F0E552E552E552E552020EE66E47
:102110004F0EE66E250EE66E000EE66E6BEC01F0DD
:10212000E552E552E552E552FD0EDBCFE9FFFE0E2A
:10213000DBCFEAFF020EE926000EEA22EF50E66E40
:10214000D9CFE6FFDACFE6FF3DEC02F0E552E552EB
:10215000E552020EE66ED9CFE6FFDACFE6FF2BECB2
:1021600001F0E552E552E552020EE66E0E0EE66E05
:10217000250EE66E000EE66E6BEC01F0E552E552C0
:10218000E552E552020EE66E600EE66E250EE66E34
:10219000000EE66E6BEC01F0E552E552E552E552B9
:1021A000020EE66E910EE66E250EE66E000EE66EEF
:1021B0006BEC01F0E552E552E552E552020EE66E97
:1021C0000E0EE66E250EE66E000EE66E6BEC01F06E
:1021D000E552E552E552E552020EE66E0E0EE66E4F
:1021E000250EE66E000EE66E6BEC01F0E552E55250
:1021F000E552E552020EE66EAD0EE66E250EE66E77
:10220000000EE66E6BEC01F0E552E552E552E55248
:10221000020EE66E0E0EE66E250EE66E000EE66E01
:102220006BEC01F0E552E552E552E552020EE66E26
:102230000E0EE66E250EE66E000EE66E6BEC01F0FD
:10224000E552E552E552E552020EE66E0E0EE66EDE
:10225000250EE66E000EE66E6BEC01F0E552E552DF
:10226000E552E552020EE66E0E0EE66E250EE66EA5
:10227000000EE66E6BEC01F0E552E552E552E552D8
:10228000030EE15C02E2E16AE552E16EE552E7CF5E
:04229000D9FF120060
:0C229400DCEC12F00001606B0001616BDB
:1022A00062C0E9FF63C0EAFF040EE926000EEA22DD
:1022B000000EEE6E030EED6E62C0E9FF63C0EAFF32
:1022C000EE52EF6A62C0E9FF63C0EAFF020EE92640
:1022D000000EEA22EF6A62C0E9FF63C0EAFF030E64
:1022E000E926000EEA22EF6A62C0E9FF63C0EAFF56
:1022F000EF6A0001646B0001656B66C0E9FF67C0AF
:10230000EAFF040EE926000EEA22000EEE6E020E2F
:10231000ED6E66C0E9FF67C0EAFFEE52EF6A66C085
:10232000E9FF67C0EAFF020EE926000EEA22EF6A23
:1023300066C0E9FF67C0EAFF030EE926000EEA2245
:10234000EF6A66C0E9FF67C0EAFFEF6A0001686BE9
:102350000001696B0001000E6B6F010E6C6F0001D4
:10236000800E6D6F010E6E6F6FC0E9FF70C0EAFFE7
:10237000EF6A6FC0E9FF70C0EAFFEE52EF6A6FC00C
:10238000E9FF70C0EAFF020EE926000EEA22EF6ABA
:102390006FC0E9FF70C0EAFF030EE926000EEA22D3
:1023A000710EEE6E000EED6EA80E0B6E2A0E0C6E08
:1023B0000D6A0BC0E6FF0CC0E6FF0DC0E6FF000E85
:1023C000E66E010EE66EE7EC13F00E6E050EE15EB2
:1023D0000E50A80E0B6E2A0E0C6E0D6A0BC0E6FF97
:1023E0000CC0E6FF0DC0E6FF800EE66E010EE66E45
:1023F000E7EC13F00E6E050EE15E0E50A80E0B6EAC
:102400002A0E0C6E0D6A0BC0E6FF0CC0E6FF0DC075
:10241000E6FF710EE66E000EE66EE7EC13F00E6E50
:10242000050EE15E0E50680EE66E000EE66E600E62
:10243000E66E000EE66ECBEC02F0E552E552E55298
:10244000E552680EE66E000EE66E640EE66E000E55
:10245000E66E8AEC08F0E552E552E552E552E3D724
:02246000120068
:0E24620022544350222C00226170692E6D79A5
:102470006A736F6E2E636F6D222C003830000D0A68
:1024800000000000000000000000000000004154B7
:102490000D0A000000000000000000000000415490
:1024A0002B43574D4F44453D000000000000415470
:1024B0002B5253540D0A000000000000000041544C
:1024C0002B4357444843503D000000000000415456
:1024D0002B43574A41503D0000000000000041548A
:1024E0002B43495053544152543D00000000415485
:1024F0002B43495053454E443D00000000004154D9
:102500002B434950434C4F53450D0A0000000D0A20
:1025100000504F535420004745542000005055545C
:1025200020000020485454502F312E3100484F5382
:10253000543A200000000000000000000000434F5B
:102540004E54454E542D545950453A2000000043F6
:102550004F4E54454E542D4C454E4754483A20005A
:10256000434F4E4E454354494F4E3A200000000021
:10257000006170692E6D796A736F6E2E636F6D00E6
:102580006170706C69636174696F6E2F6A736F6ECE
:1025900000636C6F73650000000000006B65657080
:1025A0002D616C697665002F62696E73007B223045
:0725B000223A2230227D00D7
:0825B800F26AC00E9B6E740E66
:1025C000D36ECD6A0E01FF910E01F29E550EA76EDD
:1025D000AA0EA76EFF910C0EF66F050ED16F070EB7
:1025E000E76F550EA76EAA0EA76EFF81C26AC16A79
:1025F0000F01499F0F01536BD26A896A0F01486925
:102600003F0E926E8A6A170E0F0149110F01496F32
:10261000100E936E400E8B6E0F014997820E946ED2
:102620000C0EE66EE66A1C0EE66E6FEC14F0E552D8
:10263000E552E552E40EE66E25EC15F0E5527E9A81
:102640000C0EE66EE66A1C0EE66E33EC14F0E552F4
:10265000E552E552E40EE66E14EC15F0E5527C9A74
:10266000080ED56ED76AD66AD09E9E9A9D8AA49A85
:08267000A38AF28CF28E120025
:08267800736574757000000029
:10268000636F6E6E6563740075706C6F61640000DB
:1026900073736964000000007061737300000000D0
:1026A00075726C00000000004F4B0D0A0000000026
:1026B000000000000000000000000000000000001A
:1026C00000000000000000000000000057494649DB
:1026D00020474F542049500D0A0000000000000020
:1026E00000000000000000000000000000000000EA
:1026F0007B22757269223A22687474703A2F2F61B6
:1027000070692E6D796A736F6E2E636F6D2F6269BB
:102710006E732F00687474703A2F2F6170692E6D7C
:10272000796A736F6E2E636F6D2F62696E732F00FF
:10273000060EF66E000EF76E000EF86E0001090030
:10274000F550866F0900F550876F03E1866701D069
:102750003DD00900F550816F0900F550826F0900E6
:10276000F550836F09000900F550E96E0900F55036
:10277000EA6E090009000900F550846F0900F55060
:10278000856F09000900F6CF88F0F7CF89F0F8CF00
:102790008AF081C0F6FF82C0F7FF83C0F8FF000116
:1027A000845302E1855307E00900F550EE6E84077B
:1027B000F8E28507F9D788C0F6FF89C0F7FF8AC01D
:0E27C000F8FF00018607000E875BBFD71200EE
:0227CE00FB0E00
:1027D000E3CFF6FFFC0EE3CFF7FFFD0EE3CFF8FFEC
:1027E000FE0EE3CFE9FFFF0EE3CFEAFFE9CFF3FFF1
:1027F000EACFF4FF0900F5CFEFFFEE66FBD712003A
:10280000FE0EE3CFE9FFFF0EE3CFEAFFF36AF46ABF
:10281000EE5203E0F34AF42AFBD71200FF0EE3CF97
:10282000F8FFE552FF0EE3CFF7FFE552FF0EE3CFCF
:10283000F6FFE552E66AE66AE66A0900F55209E043
:10284000FD0EE32A05E1FE0EE32A02E1FF0EE32A74
:10285000F4D7FD0EE3CF05F0FE0EE3CF06F0FF0E3A
:06286000E3CF07F01200B7
:0A286600D9CFE6FFDACFE6FFE1CF9D
:10287000D9FFE2CFDAFFA86A9C6AFD0EDBB0A88818
:10288000DBA202D0A88C9C8CDBB4A88EDBA602D085
:102890009C8801D09C8ADBA802D0A88401D0A8948F
:1028A000DBBA9C86DBAC02D0A38A01D0A39ADBAE54
:1028B00002D0A38801D0A398FB0EDB50AB6EFC0EB8
:1028C000DBCF0CF00CC00BF00C6A0B507D6EA88AAD
:0E28D0009C8EE552E5CFDAFFE7CFD9FF12006C
:0228DE00D9CF50
:1028E000E6FFDACFE6FFE1CFD9FFE2CFDAFFAD6A4C
:1028F000AC6AFD0EDBB0AD88DBA202D0AD8CAC8C37
:10290000DBB4AD8EDBA602D0AC8801D0AC8ADBB8DC
:10291000AD84DBBAAC86DBAC02D09D8A01D09D9A37
:10292000DBAE02D09D8801D09D98FB0EDB50B06ECF
:10293000FC0EDBCF0CF00CC00BF00C6A0B507F6E62
:10294000AD8AAC8EE552E5CFDAFFE7CFD9FF1200B2
:10295000D9CFE6FFDACFE6FFE1CFD9FFE2CFDAFF4A
:10296000E652F20E000195179CAC03D095919CB0F5
:1029700095819CB495859CB29587AA50DF6EDF50F7
:0E298000E552E552E5CFDAFFE7CFD9FF1200AE
:02298E00D9CF9F
:10299000E6FFDACFE6FFE1CFD9FFE2CFDAFFE6527A
:1029A000F20E00019617ACAC03D09691ACB09681B4
:1029B000ACB49685ACB29687AF50DF6EDF50E5526F
:0C29C000E552E5CFDAFFE7CFD9FF1200A7
:0429CC00D9CFE6FF7A
:1029D000DACFE6FFE1CFD9FFE2CFDAFFA8AC04D02F
:1029E000A890000195B3A880FD0EDB50A96EE552BA
:0A29F000E5CFDAFFE7CFD9FF1200B0
:0629FA00D9CFE6FFDACFA1
:102A0000E6FFE1CFD9FFE2CFDAFFADAC04D0AD9065
:102A1000000196B3AD80FD0EDB50AE6EE552E5CF02
:082A2000DAFFE7CFD9FF120035
:082A2800D9CFE6FFDACFE6FF8B
:102A3000E1CFD9FFE2CFDAFFFD0EDB507C6EE5522D
:0A2A4000E5CFDAFFE7CFD9FF12005F
:062A4A00D9CFE6FFDACF50
:102A5000E6FFE1CFD9FFE2CFDAFFFD0EDB507E6E5D
:0C2A6000E552E5CFDAFFE7CFD9FF120006
:042A6C00C00EF36E37
:102A700000EE00F00E0E01D81200EA6002D0EE6AFD
:0C2A8000FCD7F350E9601200EE6AFCD7AE
:042A8C001DEE00F04B
:102A90002DEE00F0F86A0A9C98EC13F05CEC15F04F
:082AA0004AEC11F0FBD7120013
:082AA80030002F00222C220057
:072AB00022002C000D0A00BA
:022AB80012000A
:013FF800AC1C
:013FF900F6D1
:013FFA00D3F3
:013FFD00F8CB
:00000001FF
