:040000009AEF00F083
:100008004E82FACF03F0FBCF04F0E9CF05F0EACF38
:1000180006F0E1CF07F0E2CF08F0D9CF09F0DACF48
:100028000AF0F3CF0BF0F4CF0CF0F6CF0DF0F7CFCA
:100038000EF0F8CF0FF0F5CF10F09EAA1CD042506A
:10004800010DF3503F24D96EF4504020DA6EAFCF43
:10005800DFFF20EE42F0DFCF01F0010EDF26015076
:10006800010DF3503F24D96EF4504020DA6E0A0E89
:10007800DE18D8B4412AA4AA1CD03C50010DF35074
:100088003924D96EF4503A20DA6EAACFDFFF20EE79
:100098003CF0DFCF01F0010EDF260150010DF350D7
:1000A8003924D96EF4503A20DA6E0A0EDE18D8B424
:1000B8003B2AF0A011D03550D8A406D0D58EF19A9D
:1000C800F090010E356E08D0D59EF18AF090F0962A
:1000D800000E356E010E376E9EA00AD09E902C063B
:1000E800D8A02D062C502D10D8A402D0010E2E6EAB
:1000F80010C0F5FF0FC0F8FF0EC0F7FF0DC0F6FFE8
:100108000CC0F4FF0BC0F3FF0AC0DAFF09C0D9FF27
:1001180008C0E2FF07C0E1FF06C0EAFF05C0E9FF2B
:1001280004C0FBFF03C0FAFF4E921100CEEF0DF0A2
:1001380020EE02F02850D9262950DA22000EDF6E70
:1001480028C0D9FF29C0DAFFDF50D8A40FD020EE8D
:1001580002F02850D9262950DA22920E116E3F0E4D
:10016800126E80EC0DF01150DF6E42D028C0D9FF1E
:1001780029C0DAFF020EDE18D8A43AD03A0E116E62
:100188003F0E126E80EC0DF020EE02F02850D926BA
:100198002950DA221150DF26890E156E000E166ED0
:1001A80020EE03F02850D9262950DA22DECF17F0A6
:1001B800DDCF18F08CEC0BF0890E116E000E126E6C
:1001C80080EC0DF020EE02F02850D9262950DA22D2
:1001D8001150DF26440E116E3F0E126E80EC0DF0AA
:1001E80020EE02F02850D9262950DA221150DF26B5
:1001F800930E156E000E166E20EE02F02850D926CA
:100208002950DA22DF50176EE4EC0BF020EE01F0F3
:100218002850D9262950DA22000EDF6E28C0D9FFCF
:1002280029C0DAFFDF50D8A431D04E0E116E3F0E30
:10023800126E80EC0DF020EE01F02850D9262950DE
:10024800DA221150DF26AD0E116E3F0E126E80ECD1
:100258000DF020EE01F02850D9262950DA2211504D
:10026800DF269C0E116E3F0E126E80EC0DF020EE14
:1002780001F02850D9262950DA221150DF26B30E72
:10028800116E3F0E126E80EC0DF05AD028C0D9FFC7
:1002980029C0DAFF020EDE18D8A45AD05A0E116E01
:1002A8003F0E126E80EC0DF020EE01F02850D9269A
:1002B8002950DA221150DF26AD0E116E3F0E126E54
:1002C80080EC0DF020EE01F02850D9262950DA22D2
:1002D8001150DF26F20E116E3F0E126E80EC0DF0FB
:1002E80020EE01F02850D9262950DA221150DF26B5
:1002F80020EE05F02850D9262950DA22DECF11F059
:10030800DDCF12F080EC0DF020EE01F02850D92658
:100318002950DA221150DF269C0E116E3F0E126E04
:1003280080EC0DF020EE01F02850D9262950DA2271
:100338001150DF26B30E116E3F0E126E80EC0DF0D9
:1003480020EE01F02850D9262950DA221150DF2654
:10035800940E116E3E0E126E80EC0DF020EE01F040
:100368002850D9262950DA221150DF26830E116E23
:100378003F0E126E80EC0DF020EE01F02850D926C9
:100388002950DA221150DF26B30E116E3F0E126E7D
:1003980080EC0DF020EE01F02850D9262950DA2201
:1003A8001150DF26A50E116E3E0E126E80EC0DF078
:1003B80020EE01F02850D9262950DA221150DF26E4
:1003C800720E116E3F0E126E80EC0DF020EE01F0F1
:1003D8002850D9262950DA221150DF26B30E116E83
:1003E8003F0E126E80EC0DF020EE01F02850D92659
:1003F8002950DA221150DF26B60E116E3E0E126E0B
:1004080080EC0DF020EE01F02850D9262950DA2290
:100418001150DF26930E116E000E126E80EC0DF057
:1004280020EE01F02850D9262950DA221150DF2673
:10043800B30E116E3F0E126E80EC0DF020EE01F03F
:100448002850D9262950DA221150DF26C70E116EFE
:100458003E0E126E80EC0DF020EE01F02850D926E9
:100468002950DA221150DF26240E116E3F0E126E2B
:1004780080EC0DF020EE01F02850D9262950DA2220
:100488001150DF26B30E116E3F0E126E80EC0DF088
:1004980020EE01F02850D9262950DA221150DF2603
:1004A800B30E116E3F0E126E80EC0DF020EE01F0CF
:1004B8002850D9262950DA221150DF2628C0D9FF22
:1004C80029C0DAFFDF50D8A407D0920E116E3F0E74
:1004D800126E80EC0DF02AD028C0D9FF29C0DAFFAF
:1004E800020EDE18D8A42AD03A0E116E3F0E126EF4
:1004F80080EC0DF020EE01F02850D9262950DA22A0
:100508001150DF26890E116E000E126E80EC0DF070
:1005180020EE01F02850D9262950DA221150DF2682
:10052800440E116E3F0E126E80EC0DF020EE01F0BD
:100538002850D9262950DA221150DF26B30E116E21
:100548003F0E126E80EC0DF020EE01F02850D926F7
:100558002950DA221150DF26B30E116E3F0E126EAB
:1005680080EC0DF020EE01F02850D9262950DA222F
:100578001150DF26B30E116E3F0E126E80EC0DF097
:1005880020EE01F02850D9262950DA221150DF2612
:10059800B30E116E3F0E126E80EC0DF020EE01F0DE
:1005A8002850D9262950DA221150DF268F0E156ED1
:1005B800000E166E20EE01F02850D9262950DA22B6
:1005C800DF50176EE4EC0BF0120020EE05F01A5025
:1005D800D9261B50DA2210EE03F01A50E1261B50E0
:1005E800E222DE50E618D8B4A9D120EE05F01A5060
:1005F800D9261B50DA22DFCF20F0010EDF2620504B
:10060800010D1AC0D9FF1BC0DAFFDECF21F0DDCF04
:1006180022F0F3502124116EF4502220126E010EA4
:10062800136E2DEC0EF08AD120EE02F01A50D92666
:100638001B50DA22DF50D8B4120018C0D9FF19C0F5
:10064800DAFF010EDF6E120020EE01F01850D926F5
:100658001950DA22DF50D8A412001AC0D9FF1BC0E3
:10066800DAFFDECF11F0DDCF12F020EE04F01A50E1
:10067800D9261B50DA22DF50136ED80E146E3E0EA8
:10068800156EA9EC0DF00009D8B411D0000E316E2A
:1006980020EE01F01850D9261950DA22020EDF6E2A
:1006A80018C0D9FF19C0DAFF030EDF6E12001AC096
:1006B800D9FF1BC0DAFFDECF11F0DDCF12F020EE3C
:1006C80004F01A50D9261B50DA22DF50136EE00EC0
:1006D800146E3E0E156EA9EC0DF00009D8B417D0B3
:1006E8001EC0D9FF1FC0DAFF000EDF6E000E4D6E70
:1006F80020EE01F01850D9261950DA22030EDF6EC9
:1007080018C0D9FF19C0DAFF030EDF6E12001AC035
:10071800D9FF1BC0DAFFDECF11F0DDCF12F020EEDB
:1007280004F01A50D9261B50DA22DF50136EE80E57
:10073800146E3E0E156EA9EC0DF00009D8B417D052
:100748001EC0D9FF1FC0DAFF020EDF6E000E4D6E0D
:1007580020EE01F01850D9261950DA22030EDF6E68
:1007680018C0D9FF19C0DAFF030EDF6E12001AC0D5
:10077800D9FF1BC0DAFFDECF11F0DDCF12F020EE7B
:1007880004F01A50D9261B50DA22DF50136EF00EEF
:10079800146E3E0E156EA9EC0DF00009D8B409D000
:1007A80020EE01F01850D9261950DA22040EDF6E17
:1007B80012001AC0D9FF1BC0DAFFDECF11F0DDCF5F
:1007C80012F020EE04F01A50D9261B50DA22DF501E
:1007D800136EF80E146E3E0E156EA9EC0DF000099E
:1007E800D8B409D020EE01F01850D9261950DA22D1
:1007F800050EDF6E12001AC0D9FF1BC0DAFFDECF6C
:1008080011F0DDCF12F020EE04F01A50D9261B505B
:10081800DA22DF50136E000E146E3F0E156EA9EC2F
:100828000DF00009D8B40FD020EE01F01850D926E9
:100838001950DA22060EDF6E18C0D9FF19C0DAFF88
:10084800030EDF6E120018C0D9FF19C0DAFF020EBE
:10085800DF6E120020EE04F01A50D9261B50DA225F
:10086800DF50206E2050010D1AC0D9FF1BC0DAFFDF
:10087800DECF21F0DDCF22F0F3502124116EF450A9
:100888002220126E020E136E2DEC0EF020EE04F0F4
:100898001A50D9261B50DA22DFCF20F0010EDF26AE
:1008A8002050010D1AC0D9FF1BC0DAFFDECF21F09E
:1008B800DDCF22F0F3502124D96EF4502220DA6ED5
:1008C8000A0EDE18D8A4C6D718C0D9FF19C0DAFF97
:1008D800000EDF6E20EE02F01A50D9261B50DA22E5
:1008E800DF06120020EE04F01A50D9261B50DA2237
:1008F800DFCF20F0010EDF262050010D1AC0D9FFEE
:100908001BC0DAFFDECF21F0DDCF22F0F350212427
:10091800D96EF4502220DA6E0A0EDE18D8A4E2D777
:1009280018C0D9FF19C0DAFF000EDF6E20EE02F002
:100938001A50D9261B50DA22DF06120018C0D9FF38
:1009480019C0DAFFDF50000AD8B46ED6010AD8B44D
:100958007BD6030AD8B47ED7010AD8A41200C2D71E
:1009680011D120EE02F01B50D9261C50DA22DF509C
:10097800D8B4120019C0D9FF1AC0DAFF010EDF6E11
:1009880012001BC0D9FF1CC0DAFFDECF11F0DDCF8B
:1009980012F020EE04F01B50D9261C50DA22DF504A
:1009A800136EE00E146E3D0E156EA9EC0DF00009E5
:1009B800D8B403D020EE01F037D01BC0D9FF1CC03B
:1009C800DAFFDECF11F0DDCF12F020EE04F01B507D
:1009D800D9261C50DA22DF50136E4C0E146E3E0ED0
:1009E800156EA9EC0DF00009D8B403D020EE02F082
:1009F8001BD01BC0D9FF1CC0DAFFDECF11F0DDCF42
:100A080012F020EE04F01B50D9261C50DA22DF50D9
:100A1800136E700E146E3E0E156EA9EC0DF00009E3
:100A2800D8B407D020EE05F01D50D9261E50DA2282
:100A38001DD01BC0D9FF1CC0DAFFDECF11F0DDCFFF
:100A480012F020EE04F01B50D9261C50DA22DF5099
:100A5800136E040E146E3E0E156EA9EC0DF000090F
:100A6800D8B407D01DC0D9FF1EC0DAFF010EDF6E53
:100A78003AD01BC0D9FF1CC0DAFFDECF11F0DDCFA2
:100A880012F020EE04F01B50D9261C50DA22DF5059
:100A9800136E280E146E3E0E156EA9EC0DF00009AB
:100AA800D8B421D01BC0D9FF1CC0DAFFDECF11F0AB
:100AB800DDCF12F020EE04F01B50D9261C50DA22AC
:100AC800DF50230F136E20EE05F01F50D92620505B
:100AD800DA22DECF14F0DDCF15F0EB0E166E3F0EE6
:100AE800176E03EC0DF019C0D9FF1AC0DAFF030E18
:100AF800DF6E120020EE04F01B50D9261C50DA22BB
:100B0800DF50216E2150010D1BC0D9FF1CC0DAFF38
:100B1800DECF22F0DDCF23F0F3502224116EF45003
:100B28002320126E010E136E2DEC0EF020EE04F051
:100B38001B50D9261C50DA22DFCF21F0010EDF2608
:100B48002150010D1BC0D9FF1CC0DAFFDECF22F0F7
:100B5800DDCF23F0F3502224D96EF4502320DA6E2F
:100B68000A0EDE18D8A4C6D719C0D9FF1AC0DAFFF2
:100B7800000EDF6E20EE02F01B50D9261C50DA2240
:100B8800DF06120019C0D9FF1AC0DAFFDF50000AC9
:100B9800D8B4E7D6010AD8B4F4D6030AD8B41200F8
:100BA800010AD8A41200A6D714C0D9FF15C0DAFFCD
:100BB800DF50D8A421D04E0E116E3F0E126E020ED9
:100BC800136EA7EC0CF0AD0E116E3F0E126E020EF6
:100BD800136EA7EC0CF09C0E116E3F0E126E020EF7
:100BE800136EA7EC0CF0B30E116E3F0E126E020ED0
:100BF800136EA7EC0CF03ED014C0D9FF15C0DAFF75
:100C0800020EDE18D8A436D05A0E116E3F0E126EA0
:100C1800020E136EA7EC0CF0AD0E116E3F0E126EA5
:100C2800020E136EA7EC0CF0F20E116E3F0E126E50
:100C3800020E136EA7EC0CF020EE05F01450D92626
:100C48001550DA22DECF11F0DDCF12F0020E136E4E
:100C5800D8EC0CF09C0E116E3F0E126E020E136E45
:100C6800A7EC0CF0B30E116E3F0E126E020E136E4F
:100C7800A7EC0CF0940E116E3E0E126E020E136E5F
:100C8800A7EC0CF0830E116E3F0E126E020E136E5F
:100C9800A7EC0CF0B30E116E3F0E126E020E136E1F
:100CA800A7EC0CF0A50E116E3E0E126E020E136E1E
:100CB800A7EC0CF0720E116E3F0E126E020E136E40
:100CC800A7EC0CF0B30E116E3F0E126E020E136EEF
:100CD800A7EC0CF0B60E116E3E0E126E020E136EDD
:100CE800A7EC0CF0930E116E000E126E020E136E2E
:100CF800D8EC0CF0B30E116E3F0E126E020E136E8E
:100D0800A7EC0CF0C70E116E3E0E126E020E136E9B
:100D1800A7EC0CF0240E116E3F0E126E020E136E2D
:100D2800A7EC0CF0B30E116E3F0E126E020E136E8E
:100D3800A7EC0CF0B30E116E3F0E126E020E136E7E
:100D4800A7EC0CF014C0D9FF15C0DAFFDF50D8A407
:100D580009D0920E116E3F0E126E020E136EA7ECA2
:100D68000CF020D014C0D9FF15C0DAFF020EDE182F
:100D7800D8A418D03A0E116E3F0E126E020E136EE2
:100D8800A7EC0CF0890E116E000E126E020E136E97
:100D9800D8EC0CF0440E116E3F0E126E020E136E5C
:100DA800A7EC0CF0B30E116E3F0E126E020E136E0E
:100DB800A7EC0CF0B30E116E3F0E126E020E136EFE
:100DC800A7EC0CF0B30E116E3F0E126E020E136EEE
:100DD800A7EC0CF0B30E116E3F0E126E020E136EDE
:100DE800A7EC0CF01200EFD0000E316E000E4D6E25
:100DF80012009EC021F09FC022F0A2C023F0A3C021
:100E080024F079EC09F00009D8B41200000120EEB2
:100E180001F09E51D9269F51DA22000EDF6E120092
:100E2800A2C0D9FFA3C0DAFFDE04D8A42AD09EC08E
:100E380096F09FC097F0A2C098F0A3C099F0A4C004
:100E48009AF0A5C09BF04D0E00019C6F000E0001AA
:100E58009D6F05EC08F00009D8B41200000120EEDF
:100E680004F0A251D926A351DA22010EDF6E000147
:100E780020EE01F09E51D9269F51DA22000EDF6E36
:100E880012009EC021F09FC022F0A2C023F0A3C090
:100E980024F079EC09F01200A0C0D9FFA1C0DAFF54
:100EA800DECF11F0DDCF12F0000120EE04F0A051EA
:100EB800D926A151DA22050EDF26DF50136E000174
:100EC80020EE06F0A251D926A351DA22DECF14F083
:100ED800DDCF15F0F40E166E3F0E176E03EC0DF015
:100EE800000120EE01F09E51D9269F51DA22000E12
:100EF800DF6E9EC0D9FF9FC0DAFF030EDF6E1200BF
:100F0800A0C0D9FFA1C0DAFFDECF11F0DDCF12F00B
:100F1800000120EE04F0A051D926A151DA22050ED5
:100F2800DF26DF50136E000120EE08F0A251D9260B
:100F3800A351DA22DECF14F0DDCF15F0F40E166ED1
:100F48003F0E176E03EC0DF0000120EE01F09E51EC
:100F5800D9269F51DA22000EDF6E9EC0D9FF9FC0AE
:100F6800DAFF030EDF6E1200080E116E3F0E126ECE
:100F7800010E136EA7EC0CF0000120EE05F0A45151
:100F8800D926A551DA22DECF11F0DDCF12F0010EFD
:100F9800136ED8EC0CF0ED0E116E3F0E126E010EB2
:100FA800136EA7EC0CF0000120EE01F09E51D9263B
:100FB8009F51DA22000EDF6E9EC0D9FF9FC0DAFF74
:100FC800030EDF6E1200000120EE01F09E51D926BB
:100FD8009F51DA22DF50000AD8B406D7010AD8B4E4
:100FE8001200030AD8B405D7010AD8B419D7070ADA
:100FF800D8B452D7010AD8B483D7030AD8A41200A8
:10100800B3D7ABD0000120EE01F09851D926995101
:10101800DA22000EDF6E80EC0EF09CC0D9FF9DC076
:10102800DAFF010E56D0000120EE01F09851D926C2
:101038009951DA22DF50D8B4A7D0000120EE01F090
:101048009851D9269951DA22000EDF6E57EC0DF02F
:101058009CC0D9FF9DC0DAFF020E3BD0000120EEF4
:1010680001F09851D9269951DA22DF50D8B48CD0A2
:10107800000120EE01F09851D9269951DA22000E8C
:10108800DF6E9AC028F09BC029F09CEC00F046EC7B
:101098000EF09CC0D9FF9DC0DAFF030E1AD00001E4
:1010A80020EE01F09851D9269951DA22DF50D8B4B0
:1010B8006BD0000120EE05F09851D9269951DA221B
:1010C800000EDF6E9AC014F09BC015F0D8EC05F046
:1010D80004D0DF6E59D089EC0EF09CC0D9FF9DC0BA
:1010E800DAFF050EF6D7000120EE05F09851D92653
:1010F8009951DA22DF50D8B447D0080E116E3F0E4E
:10110800126E010E136EA7EC0CF0000120EE05F034
:101118009A51D9269B51DA22DECF11F0DDCF12F099
:10112800010E136ED8EC0CF0ED0E116E3F0E126E20
:10113800010E136EA7EC0CF09CC0D9FF9DC0DAFF1E
:10114800000EDF6E000120EE01F09651D92697516E
:10115800DA22000EDF6E010E12009CC0D9FF9DC07E
:10116800DAFFDF50000AD8B44DD7010AD8B45BD7EC
:10117800030AD8B473D7010AD8B491D7070AD8B4E8
:10118800AAD7010AD8B4AFD7000E12001BEC0BF097
:1011980021EC0AF0000E00017C6F04002E50D8B438
:1011A8000AD021EC0AF0B90E116E3F0E126E010E34
:1011B800136EA7EC0CF04B0E186E000E196E3F0E56
:1011C8001A6E000E1B6E780E1C6E000E1D6E820EBF
:1011D8001E6E000E1F6EE9EC02F0490E196E000E2D
:1011E8001A6E390E1B6E000E1C6E780E1D6E000EE8
:1011F8001E6E820E1F6E000E206EB4EC04F04B0EB5
:1012080000019E6F000E00019F6F3F0E0001A06F4E
:10121800000E0001A16F780E0001A26F000E000100
:10122800A36F820E0001A46F000E0001A56FF7ECFA
:1012380006F050D000017C51D8B4AFD7CD90030E42
:101248002D6E930E2C6E000ECF6E000ECE6E9E90FD
:101258009D80CD80320E116E000E126E2EEC0DF0B8
:10126800020E36D0320E116E000E126EA5EC0AF088
:101278003650D8B492D733C085F034C086F0000E0B
:10128800366E010E09D04C50D8A487D7020E000143
:10129800826F030E4C6E020E2F6E7FD74C50D8A46F
:1012A8007CD7000E2F6E010E13D02F50000AD8B431
:1012B800D9D7010AD8B4E7D7030AD8B4EFD76DD77E
:1012C800ADA2FED7A8A2FED79480CD900300000E51
:1012D800306E63D73050000AD8B4ACD7010AD8B4FE
:1012E800EFD7030AD8B4E1D758D792D020EE01F04F
:1012F8002350D9262450DA22000EDF6E80EC0EF03F
:10130800010E79D020EE01F02350D9262450DA229C
:10131800DF50D8B490D020EE01F02350D9262450C5
:10132800DA22000EDF6E010EF1EC0DF0020E63D032
:1013380020EE01F02350D9262450DA22DF50D8B409
:101348007AD020EE01F02350D9262450DA22000E5C
:10135800DF6E20EE02F02350D9262450DA22000E48
:10136800DF6E77EC0EF0030E46D020EE02F023502D
:10137800D9262450DA22DF50D8B45DD020EE01F00F
:101388002350D9262450DA22000EDF6E23C0D9FF5D
:1013980024C0DAFF000EDF6E010E1F6E010E34EC62
:1013A8000CF0040E28D020EE01F02350D92624504A
:1013B800DA22DF50D8B43FD020EE01F02350D926EE
:1013C8002450DA22000EDF6E20EE06F02350D926D4
:1013D8002450DA22DECF14F0DDCF15F020EE08F02D
:1013E8002350D9262450DA22DECF16F0DDCF17F0AD
:1013F8006EEC0CF0050E316E1ED023C0D9FF24C050
:10140800DAFFDE04D8A417D0000E316E010E1200E8
:101418003150000AD8B46AD7010AD8B473D7030A7E
:10142800D8B486D7010AD8B4A0D7070AD8B4BBD78E
:10143800010AD8B4E2D7000E1200000E316E000E79
:101448004D6E000E4B6E000E4C6E000E3F6E010E80
:10145800406E000E426E000E436E000E446E000E8B
:10146800416E000E496E000E4A6E000E396E020E75
:101478003A6E000E3C6E000E3D6E000E3E6E000E83
:101488003B6E000E0001786F000E0001796F000EB0
:1014980000017A6F000E00017D6F000E00017E6F63
:1014A800030E00017F6F800E0001806F030E0001A4
:1014B800816F7EC011F07FC012F0DB0E136E3F0EFD
:1014C800146E5FEC0EF080C011F081C012F0CC0EEB
:1014D800136E3F0E146E5FEC0EF0000E0001826F6B
:1014E800000E0001836F000E0001846F680E00017A
:1014F800876F000E0001886F000E0001866F000ED6
:10150800856F000E326E000E346E000E336E000EC4
:10151800356E000E366E000E376E000E386E000EF9
:10152800306E000E2F6ECD90030E2D6E930E2C6E26
:10153800000E2E6E000ECF6E000ECE6E9E909D8019
:10154800120066D081B81200D59E000ED76E000E2C
:10155800D66EF090F18AF0868B84140EE82EFED7B2
:101568008B9420EE06F01150D9261250DA22000E84
:10157800DF6E11C0D9FF12C0DAFF020EDF6E120053
:1015880020EE05F01150D9261250DA22DF50D8B4D7
:101598001200D650136E146A20EE01F01150D926AD
:1015A8001250DA2213C0DEFF14C0DDFF20EE01F076
:1015B8001150D9261250DA22DECF13F0DDCF14F005
:1015C800D750166E156A135015121450161220EEC5
:1015D80001F01150D9261250DA2215C0DEFF16C0CC
:1015E800DDFF20EE05F01150D9261250DA22000E48
:1015F800DF6E20EE04F01150D9261250DA22010EC7
:10160800DF6E11C0D9FF12C0DAFF000EDF6E1200C4
:1016180011C0D9FF12C0DAFFDF50000AD8B4120097
:10162800010AD8B48FD7030AD8A41200A9D7000E8C
:10163800F26EC00E9B6E740ED36E000ECD6E0E0150
:10164800FF910E01F29E550EA76EAA0EA76EFF918E
:101658000C0EF66F050ED16F070EE76F550EA76ECD
:10166800AA0EA76EFF81000EC26E000EC16E0F019A
:10167800499F000E0F01536F000ED26E000E896E47
:101688000F0148693F0E926E000E8A6E0F01495194
:1016980017090F01496F100E936E400E8B6E0F01E4
:1016A8004997820E946EA40EAD6E900EAC6E000E2D
:1016B8007E6E000E7F6E0C0EB06EA40EA86E900E9D
:1016C8009C6E000E7C6E000E7D6E9B0EAB6E080E3F
:1016D800D56E000ED76E000ED66E060ECD6E000EBD
:1016E800CF6E000ECE6E000E9A6E000E0F01526F76
:1016F800D09E000E9F6E000EA26E000EA56E9E9AE2
:101708009D8AA49AA38AF28CF28E000EC06E1200F3
:10171800000E266E20EEA6F010EE1BF0090EDBCFB1
:10172800E3FFE806FCE2040E276E17501810D8B441
:1017380038D0000E256E0FD02750020D1B0EF32453
:10174800D96E000EF420DA6EDE50175EDD50185A9E
:10175800252A010E266E2750020D1B0EF324D96E82
:10176800000EF420DA6EDE50175CDE501858D8B040
:10177800E3D72650D8B40AD015C011F016C012F01D
:1017880025C013F013EC0EF0154A162A2706272851
:10179800D8A4CFD715C0D9FF16C0DAFF000EDF6E68
:1017A800120015C0D9FF16C0DAFF300EDF6E154AD9
:1017B800162A15C0D9FF16C0DAFF000EDF6E120018
:1017C800000E1D6EB0C019F0B1C01AF0B2C01BF007
:1017D800020E1E6E1750D8B434D0000E1C6E0DD0F9
:1017E8001E50010D190EF324D96E000EF420DA6E86
:1017F800DF50175E1C2A010E1D6E1E50010D190EBA
:10180800F324D96E000EF420DA6EDE50175CD8B0DF
:10181800E7D71D50D8B40AD015C011F016C012F081
:101828001CC013F013EC0EF0154A162A1E061E28CB
:10183800D8A4D3D715C0D9FF16C0DAFF000EDF6EC3
:10184800120015C0D9FF16C0DAFF300EDF6E154A38
:10185800162A15C0D9FF16C0DAFF000EDF6E120077
:10186800206E590E116E3D0E126E020E136EA7EC0D
:101878000CF0450E156E000E166E20C017F0E4EC45
:101888000BF0450E116E000E126E020E136ED8ECA0
:101898000CF0F00E116E3F0E126E020E136EA7ECD6
:1018A8000CF0450E156E000E166E1FC017F0E4EC16
:1018B8000BF0450E116E000E126E020E136ED8EC70
:1018C8000CF0ED0E116E3C0E126E020E136EA7ECAC
:1018D8000CF01200740E116E3D0E126E020E136E95
:1018E800A7EC0CF0EB0E116E3F0E126E020E136E8B
:1018F800A7EC0CF014C011F015C012F0020E136E14
:10190800D8EC0CF0E90E116E3F0E126E020E136E3B
:10191800A7EC0CF016C011F017C012F0020E136EEF
:10192800D8EC0CF0EB0E116E3F0E126E020E136E19
:10193800A7EC0CF0ED0E116E3C0E126E020E136E3B
:10194800A7EC0CF012001304D8A415D0ADA2FED752
:1019580011C0F6FF12C0F7FF0800F5CFAEFF114A1D
:10196800122A11C0F6FF12C0F7FF0800F55000094F
:10197800D8B41200EBD7020E1318D8A41200A8A2EC
:10198800FED711C0F6FF12C0F7FF0800F5CFA9FF78
:10199800114A122A11C0F6FF12C0F7FF0800F550CD
:1019A8000009D8B41200EBD71304D8A412D0ADA202
:1019B800FED711C0D9FF12C0DAFFDF50AE6E114A50
:1019C800122A11C0D9FF12C0DAFFDF50D8B41200B2
:1019D800EED7020E1318D8A41200A8A2FED711C081
:1019E800D9FF12C0DAFFDF50A96E114A122A11C0BE
:1019F800D9FF12C0DAFFDF50D8B41200EED7135067
:101A0800010DF3501124D96EF4501220DA6E14C06F
:101A1800E1FF15C0E2FFDFCFE7FF132A144A152ABA
:101A28001350010DF3501124D96EF4501220DA6EC0
:101A3800DF50186E16C0F6FF17C0F7FF0800F55004
:101A48001818D8A4DCD714C0D9FF15C0DAFF000EC7
:101A5800DF6E120020EE01F01150D9261250DA2262
:101A6800000EDE6E000EDD6E20EE04F01150D92659
:101A78001250DA22000EDF6E20EE05F01150D92642
:101A88001250DA22000EDF6E20EE06F01150D92631
:101A98001250DA22000EDF6E11C0D9FF12C0DAFF31
:101AA800010EDF6E12008F0E116E3D0E126E020EC9
:101AB800136EA7EC0CF0A60E116E3F0E126E020EFE
:101AC800136EA7EC0CF0600E116E3F0E126E020E34
:101AD800136EA7EC0CF0B60E116E3F0E126E020ECE
:101AE800136EA7EC0CF0ED0E116E3C0E126E020E8A
:101AF800136EA7EC0CF0120011C015F012C016F00E
:101B080002D0154A162A15C0F6FF16C0F7FFF86A64
:101B18000E0EF76403D00800F55005D0F6CFE1FFAC
:101B2800F7CFE2FFE7500009D8A4EBD711C013F0B4
:101B380012C014F0131E141E134A142A155013242D
:101B4800116E16501420126E1200132A1304166E0A
:101B58001650010DF3501124D96EF4501220DA6E8C
:101B6800DF50176E14C0F6FF15C0F7FF144A152A88
:101B78000800F5501718D8B402D0000E120014C08F
:101B8800F6FF15C0F7FF0800F5500009D8A4DDD707
:101B9800010E1200240EF66E1D0EF76E000EF86E82
:101BA80000EEA6F010EE0DF00900F5CFEEFFE550BF
:101BB800E150FAE100EE60F0360EEE6AE806FDE16B
:101BC80000EE2CF0220EEE6AE806FDE14E904E92F1
:101BD800000EF86E0001CAEF08F01F6E230E116E9A
:101BE8003D0E126E020E136EA7EC0CF0450E156E2C
:101BF800000E166E1FC017F0E4EC0BF0450E116EC8
:101C0800000E126E020E136ED8EC0CF0ED0E116E73
:101C18003C0E126E020E136EA7EC0CF0120011C0EF
:101C2800D9FF12C0DAFF13C0DFFF11C0D9FF12C0FD
:101C3800DAFF300EDF2611C0D9FF12C0DAFF390EE5
:101C4800DF64120011C0D9FF12C0DAFF070EDF26C9
:101C580012001304D8A409D0ADA2FED711C0D9FF31
:101C680012C0DAFFDF50AE6E1200020E1318D8A4AD
:101C78001200A8A2FED711C0D9FF12C0DAFFDF50A8
:101C8800A96E1200AA0E116E3D0E126E020E136E90
:101C9800A7EC0CF08F0E116E000E126E020E136E72
:101CA800D8EC0CF0ED0E116E3C0E126E020E136E97
:101CB800A7EC0CF0120011C015F012C016F004D0F9
:101CC800154A162A134A142A13C0F6FF14C0F7FF40
:101CD80015C0D9FF16C0DAFF0800F5CFDFFFDF50C7
:101CE800D8B41200EDD73E0E116E3D0E126E020EE4
:101CF800136EA7EC0CF01200080E116E3D0E126E5A
:101D0800020E136EA7EC0CF01200C50E116E3D0EFC
:101D1800126E020E136EA7EC0CF0120001000A00FE
:091D28006400E8031027010A64BD
:103CEC00000D0A00000000000000000000000000B1
:103CFC0000000000000000000000000041540D0A0C
:103D0C0000000000000000000000000000000000A7
:103D1C000000000000000041542B43574D4F444518
:103D2C003D0000000000000000000000000000004A
:103D3C00000041542B5253540D0A000000000000A7
:103D4C000000000000000000000000000041542BA7
:103D5C004357444843503D00000000000000000061
:103D6C00000000000000000041542B43574A415012
:103D7C003D000000000000000000000000000000FA
:103D8C0000000041542B43495053544152543D00C0
:103D9C000000000000000000000000000000415482
:103DAC002B43495053454E443D0000000000000099
:103DBC0000000000000000000041542B4349504318
:103DCC004C4F53450D0A000000000000000000009D
:103DDC00000000004F4B0D0A000000000000000026
:103DEC0000000000000000000000000000000000C7
:103DFC0000000000000000005749464920474F547E
:103E0C002049500D0A0000000000000000000000D6
:103E1C000000000000000000000000007B22757212
:103E2C0069223A22687474703A2F2F6170692E6D72
:103E3C00796A736F6E2E636F6D2F62696E732F00CC
:103E4C0072656164790D0A0000000000000000003A
:103E5C000000000000000000000000000000000056
:103E6C0000000000434C4F5345440D0A0000000075
:103E7C000000000000000000000000000000000036
:103E8C000000000000000000484F53543A2000008E
:103E9C00000000000000000000434F4E54454E54FB
:103EAC002D545950453A20000000434F4E54454E76
:103EBC00542D4C454E4754483A2000434F4E4E45E6
:103ECC004354494F4E3A200000000000736574754E
:103EDC0070000000636F6E6E6563740075706C6FBC
:103EEC006164000073736964000000007061737397
:103EFC000000000075726C000000000068747470A3
:103F0C003A2F2F6170692E6D796A736F6E2E636F05
:103F1C006D2F62696E732F00636C6F736500000008
:103F2C000000006B6565702D616C697665007B2205
:103F3C0074696D65223A2200227D000000000000A9
:103F4C000000504F5354200047455420000050555A
:103F5C0054200000226170692E6D796A736F6E2E89
:103F6C00636F6D222C006170706C69636174696F92
:103F7C006E2F6A736F6E006170692E6D796A736F44
:103F8C006E2E636F6D007B2230223A2230227D0030
:103F9C0020485454502F312E310022544350222C9F
:103FAC00002F62696E73000D0A003830002A2A2A2D
:103FBC0053595354454D2052455345542A2A2A00EF
:103FCC006E6F76756C747572657332303137003183
:103FDC00363461756275726E2D322E3400222C22AD
:0B3FEC00000D0A002C002F000D00004B
:063FF800ADF6D3FAF7F864
:00000001FF
