:020000040000FA
:06000000B7EF13F012003F
:020006001200E6
:08000800DACFE4FFE2CFDAFFDA
:10001000E9CFE4FFEACFE4FFF6CFE4FFF7CFE4FF58
:10002000F5CFE4FFF3CFE4FFF4CFE4FFFACFE4FF32
:1000300000EE00F00B0EE80403E3EECFE4FFFBD785
:1000400000EE0BF0040EE80403E3EECFE4FFFBD771
:10005000E6529EAA18D020EC13F0E66E0001615122
:10006000EA6A6425E96E6551EA22E552E750EF6ECF
:100070006151612BEA6A6425E96E6551EA22EF500D
:100080000A0801E1602BA4AA18D001EC13F0E66E77
:1000900000016751EA6A6A25E96E6B51EA22E5526E
:1000A000E750EF6E6751672BEA6A6A25E96E6B517C
:1000B000EA22EF500A0801E1662BF0A00FD0000100
:1000C000855106E1D58EF19AF090010E856F06D02C
:1000D000D59EF18AF090856B010E866FE55200EE99
:1000E0000EF0040EE80403E3E5CFEDFFFBD700EECE
:1000F0000AF00B0EE80403E3E5CFEDFFFBD7E5CFF5
:10010000FAFFE5CFF4FFE5CFF3FFE5CFF5FFE5CF4D
:10011000F7FFE5CFF6FFE5CFEAFFE5CFE9FFE5CF53
:04012000DAFF1100F1
:0C0124000200B8270000B5000000020037
:0E01300000009C270000870000001C0000005B
:02013E00D9CF17
:10014000E6FFE1CFD9FF060EE1269D0EE66E230EF7
:10015000E66E000EE66EDCEC12F0E552E552E5527A
:100160000550E66EFD0EDBCFE9FFFE0EDBCFEAFFAA
:10017000020EE926000EEA22E552E750EF6EFD0E70
:10018000DBCFE9FFFE0EDBCFEAFFEE52EF6AFD0E9A
:10019000DBCFE9FFFE0EDBCFEAFFEF5059E1010EA6
:1001A000E66E230EE66E000EE66EDCEC12F0E55213
:1001B000E552E55205C00BF0FD0EDBCFE9FFFE0E68
:1001C000DBCFEAFFEE520B50EF26970EE66E230EC2
:1001D000E66E000EE66EDCEC12F0E552E552E552FA
:1001E00005C00BF0FD0EDBCFE9FFFE0EDBCFEAFF13
:1001F000EE520B50EF26130EE66E230EE66E000E47
:10020000E66EDCEC12F0E552E552E55205C00BF06B
:10021000FD0EDBCFE9FFFE0EDBCFEAFFEE520B5007
:10022000EF26FE0EE66E220EE66E000EE66EDCECAB
:1002300012F0E552E552E55205C00BF0FD0EDBCFA2
:10024000E9FFFE0EDBCFEAFFEE520B50EF269AD00D
:10025000FD0EDBCFE9FFFE0EDBCFEAFFEF50020819
:1002600001E090D00D0EE66E230EE66E000EE66EF7
:10027000DCEC12F0E552E552E55205C00BF0FD0E44
:10028000DBCFE9FFFE0EDBCFEAFFEE520B50EF268D
:10029000970EE66E230EE66E000EE66EDCEC12F0B4
:1002A000E552E552E55205C00BF0FD0EDBCFE9FF4C
:1002B000FE0EDBCFEAFFEE520B50EF269A0E0C6ECD
:1002C000270E0D6E0E6A0CC0E6FF0DC0E6FF0EC0D5
:1002D000E6FFDCEC12F0E552E552E55205C00BF00A
:1002E000FD0EDBCFE9FFFE0EDBCFEAFFEE520B5037
:1002F000EF26FD0EDBCFE9FFFE0EDBCFEAFF030E9C
:10030000E926000EEA22EECFE6FFEFCFE6FFCEECC5
:1003100012F0E552E552F3CF0BF0FD0EDBCFE9FF13
:10032000FE0EDBCFEAFFEE520B50EF26130EE66E09
:10033000230EE66E000EE66EDCEC12F0E552E5529E
:10034000E55205C00BF0FD0EDBCFE9FFFE0EDBCF63
:10035000EAFFEE520B50EF26FE0EE66E220EE66E20
:10036000000EE66EDCEC12F0E552E552E55205C0F7
:100370000BF0FD0EDBCFE9FFFE0EDBCFEAFFEE5206
:100380000B50EF261D0EE66E230EE66E000EE66E97
:10039000DCEC12F0E552E552E55205C00BF0FD0E23
:1003A000DBCFE9FFFE0EDBCFEAFFEE520B50EF266C
:1003B000610EE66E230EE66E000EE66EDCEC12F0C9
:1003C000E552E552E55205C00BF0FD0EDBCFE9FF2B
:1003D000FE0EDBCFEAFFEE520B50EF26FE0EE66E6E
:1003E000220EE66E000EE66EDCEC12F0E552E552EF
:1003F000E55205C00BF0FD0EDBCFE9FFFE0EDBCFB3
:10040000EAFFEE520B50EF262E0EE66E230EE66E3E
:10041000000EE66EDCEC12F0E552E552E55205C046
:100420000BF0FD0EDBCFE9FFFE0EDBCFEAFFEE5255
:100430000B50EF26700EE66E230EE66E000EE66E93
:10044000DCEC12F0E552E552E55205C00BF0FD0E72
:10045000DBCFE9FFFE0EDBCFEAFFEE520B50EF26BB
:10046000FE0EE66E220EE66E000EE66EDCEC12F07C
:10047000E552E552E55205C00BF0FD0EDBCFE9FF7A
:10048000FE0EDBCFEAFFEE520B50EF263F0EE66E7C
:10049000230EE66E000EE66EDCEC12F0E552E5523D
:1004A000E55205C00BF0FD0EDBCFE9FFFE0EDBCF02
:1004B000EAFFEE520B50EF26FD0EDBCFE9FFFE0EFA
:1004C000DBCFEAFF020EE926000EEA22EF50E66ECD
:1004D000D950030FE66E000EDA20E66E64EC0BF0E6
:1004E000E552E552E552D950030FE66E000EDA20D0
:1004F000E66ECEEC12F0E552E552F3CF0BF0FD0EB6
:10050000DBCFE9FFFE0EDBCFEAFFEE520B50EF260A
:10051000FE0EE66E220EE66E000EE66EDCEC12F0CB
:10052000E552E552E55205C00BF0FD0EDBCFE9FFC9
:10053000FE0EDBCFEAFFEE520B50EF26500EE66EBA
:10054000230EE66E000EE66EDCEC12F0E552E5528C
:10055000E55205C00BF0FD0EDBCFE9FFFE0EDBCF51
:10056000EAFFEE520B50EF26810EE66E230EE66E8A
:10057000000EE66EDCEC12F0E552E552E55205C0E5
:100580000BF0FD0EDBCFE9FFFE0EDBCFEAFFEE52F4
:100590000B50EF26FE0EE66E220EE66E000EE66EA5
:1005A000DCEC12F0E552E552E55205C00BF0FD0E11
:1005B000DBCFE9FFFE0EDBCFEAFFEE520B50EF265A
:1005C000FE0EE66E220EE66E000EE66EDCEC12F01B
:1005D000E552E552E55205C00BF0FD0EDBCFE9FF19
:1005E000FE0EDBCFEAFFEE520B50EF269D0EE66EBD
:1005F000230EE66E000EE66EDCEC12F0E552E552DC
:10060000E55205C00BF0FD0EDBCFE9FFFE0EDBCFA0
:10061000EAFFEE520B50EF26FE0EE66E220EE66E5D
:10062000000EE66EDCEC12F0E552E552E55205C034
:100630000BF0FD0EDBCFE9FFFE0EDBCFEAFFEE5243
:100640000B50EF26FE0EE66E220EE66E000EE66EF4
:10065000DCEC12F0E552E552E55205C00BF0FD0E60
:10066000DBCFE9FFFE0EDBCFEAFFEE520B50EF26A9
:10067000FE0EE66E220EE66E000EE66EDCEC12F06A
:10068000E552E552E55205C00BF0FD0EDBCFE9FF68
:10069000FE0EDBCFEAFFEE520B50EF26FE0EE66EAB
:1006A000220EE66E000EE66EDCEC12F0E552E5522C
:1006B000E55205C00BF0FD0EDBCFE9FFFE0EDBCFF0
:1006C000EAFFEE520B50EF26060EE15C02E2E16A11
:1006D000E552E16EE552E7CFD9FF1200D9CFE6FF30
:1006E000E1CFD9FF030EE126FD0EDBCFE9FFFE0EC1
:1006F000DBCFEAFFEF5039E1020EE66E010EE66E47
:10070000230EE66E000EE66E95EC0AF0E552E55219
:10071000E552E552020EE66E970EE66E230EE66E89
:10072000000EE66E95EC0AF0E552E552E552E55210
:10073000020EE66E130EE66E230EE66E000EE66EF9
:1007400095EC0AF0E552E552E552E552020EE66EEE
:10075000FE0EE66E220EE66E000EE66E95EC0AF0D8
:10076000E552E552E552E55269D0FD0EDBCFE9FFD7
:10077000FE0EDBCFEAFFEF50020860E1020EE66EEC
:100780000D0EE66E230EE66E000EE66E95EC0AF098
:10079000E552E552E552E552020EE66E970EE66E20
:1007A000230EE66E000EE66E95EC0AF0E552E55279
:1007B000E552E552020EE66E9A0E0B6E270E0C6E97
:1007C0000D6A0BC0E6FF0CC0E6FF0DC0E6FF95EC1E
:1007D0000AF0E552E552E552E552020EE66EFD0ED4
:1007E000DBCFE9FFFE0EDBCFEAFF030EE926000EAA
:1007F000EA22EECFE6FFEFCFE6FF55EC0AF0E55236
:10080000E552E552020EE66E130EE66E230EE66E1C
:10081000000EE66E95EC0AF0E552E552E552E5521F
:10082000020EE66EFE0EE66E220EE66E000EE66E1E
:1008300095EC0AF0E552E552E552E552020EE66EFD
:100840001D0EE66E230EE66E000EE66E95EC0AF0C7
:10085000E552E552E552E552020EE66E610EE66E95
:10086000230EE66E000EE66E95EC0AF0E552E552B8
:10087000E552E552020EE66EFE0EE66E220EE66EC2
:10088000000EE66E95EC0AF0E552E552E552E552AF
:10089000020EE66E2E0EE66E230EE66E000EE66E7D
:1008A00095EC0AF0E552E552E552E552020EE66E8D
:1008B000700EE66E230EE66E000EE66E95EC0AF004
:1008C000E552E552E552E552020EE66EFE0EE66E88
:1008D000220EE66E000EE66E95EC0AF0E552E55249
:1008E000E552E552020EE66E3F0EE66E230EE66E10
:1008F000000EE66E95EC0AF0E552E552E552E5523F
:10090000FD0EDBCFE9FFFE0EDBCFEAFF020EE9268C
:10091000000EEA22EF50E66ED9CFE6FFDACFE6FF0F
:1009200064EC0BF0E552E552E552020EE66ED9CFCB
:10093000E6FFDACFE6FF55EC0AF0E552E552E55264
:10094000020EE66EFE0EE66E220EE66E000EE66EFD
:1009500095EC0AF0E552E552E552E552020EE66EDC
:10096000500EE66E230EE66E000EE66E95EC0AF073
:10097000E552E552E552E552020EE66E810EE66E54
:10098000230EE66E000EE66E95EC0AF0E552E55297
:10099000E552E552020EE66EFE0EE66E220EE66EA1
:1009A000000EE66E95EC0AF0E552E552E552E5528E
:1009B000020EE66EFE0EE66E220EE66E000EE66E8D
:1009C00095EC0AF0E552E552E552E552020EE66E6C
:1009D0009D0EE66E230EE66E000EE66E95EC0AF0B6
:1009E000E552E552E552E552020EE66EFE0EE66E67
:1009F000220EE66E000EE66E95EC0AF0E552E55228
:100A0000E552E552020EE66EFE0EE66E220EE66E30
:100A1000000EE66E95EC0AF0E552E552E552E5521D
:100A2000020EE66EFE0EE66E220EE66E000EE66E1C
:100A300095EC0AF0E552E552E552E552020EE66EFB
:100A4000FE0EE66E220EE66E000EE66E95EC0AF0E5
:100A5000E552E552E552E552030EE15C02E2E16A3D
:0C0A6000E552E16EE552E7CFD9FF12002D
:040A6C00D9CFE6FFF9
:100A7000E1CFD9FFFD0EDBCFE9FFFE0EDBCFEAFFB2
:100A8000EE52EFCF0BF0FD0EDBCFE9FFFE0EDBCF1A
:100A9000EAFF030EE926000EEA22EF500B5C29E084
:100AA000010EE66EFD0EDBCFE9FFFE0EDBCFEAFFA7
:100AB000030EE926000EEA22EF50EF2A0D6E0E6AB1
:100AC000FD0EDBCFE9FFFE0EDBCFEAFF040EE926C9
:100AD000000EEA220D50EE240B6E0E50EE200C6E2E
:100AE0000BC0E6FF0CC0E6FF2BEC0AF0E552E55226
:100AF000E552FB0EDBCFE9FFFC0EDBCFEAFFEF5048
:100B0000030A01E1F5D1010A01E198D1030A14E0D9
:100B1000010A01E020D2FD0EDBCFE9FFFE0EDBCFA4
:100B2000EAFFEF5008E0FB0EDBCFE9FFFC0EDBCF66
:100B3000EAFF010EEF6E0FD2F90EDBCFE9FFFA0EDE
:100B4000DBCFEAFFEF5001E078D17E0EE66E260E95
:100B5000E66E000EE66EFD0EDBCFE9FFFE0EDBCF8C
:100B6000EAFF020EE926000EEA22EF50E66EFD0EC5
:100B7000DBCFE9FFFE0EDBCFEAFF040EE926000E15
:100B8000EA22EECFE6FFEFCFE6FFEDEC0AF00B6EC8
:100B9000060EE15E0B50000911E0F90EDBCFE9FF14
:100BA000FA0EDBCFEAFF020EEF6EFB0EDBCFE9FFA2
:100BB000FC0EDBCFEAFF030EEF6E3FD1860EE66E32
:100BC000260EE66E000EE66EFD0EDBCFE9FFFE0E92
:100BD000DBCFEAFF020EE926000EEA22EF50E66EB6
:100BE000FD0EDBCFE9FFFE0EDBCFEAFF040EE926A8
:100BF000000EEA22EECFE6FFEFCFE6FFEDEC0AF0C3
:100C00000B6E060EE15E0B5000092FE0F70EDBCFF6
:100C1000E9FFF80EDBCFEAFF020EE926000EEA221A
:100C2000EF6A010EE66E920E0B6E270E0C6E0D6AC9
:100C30000BC0E6FF0CC0E6FF0DC0E6FF95EC0AF026
:100C4000E552E552E552E552F90EDBCFE9FFFA0E27
:100C5000DBCFEAFF030EEF6EFB0EDBCFE9FFFC0EEE
:100C6000DBCFEAFF030EEF6EE8D08E0EE66E260EA7
:100C7000E66E000EE66EFD0EDBCFE9FFFE0EDBCF6B
:100C8000EAFF020EE926000EEA22EF50E66EFD0EA4
:100C9000DBCFE9FFFE0EDBCFEAFF040EE926000EF4
:100CA000EA22EECFE6FFEFCFE6FFEDEC0AF00B6EA7
:100CB000060EE15E0B5000091DE0F70EDBCFE9FFE9
:100CC000F80EDBCFEAFF020EE926000EEA22020E42
:100CD000EF6EF90EDBCFE9FFFA0EDBCFEAFF030E72
:100CE000EF6EFB0EDBCFE9FFFC0EDBCFEAFF030E5E
:100CF000EF6EA3D0960EE66E260EE66E000EE66E42
:100D0000FD0EDBCFE9FFFE0EDBCFEAFF020EE92688
:100D1000000EEA22EF50E66EFD0EDBCFE9FFFE0E7D
:100D2000DBCFEAFF040EE926000EEA22EECFE6FF53
:100D3000EFCFE6FFEDEC0AF00B6E060EE15E0B5016
:100D4000000909E0F90EDBCFE9FFFA0EDBCFEAFF7D
:100D5000040EEF6E72D09E0EE66E260EE66E000E4C
:100D6000E66EFD0EDBCFE9FFFE0EDBCFEAFF020EE3
:100D7000E926000EEA22EF50E66EFD0EDBCFE9FF1A
:100D8000FE0EDBCFEAFF040EE926000EEA22EECFCC
:100D9000E6FFEFCFE6FFEDEC0AF00B6E060EE15E2C
:100DA0000B50000909E0F90EDBCFE9FFFA0EDBCFAB
:100DB000EAFF050EEF6E41D0A60EE66E260EE66E39
:100DC000000EE66EFD0EDBCFE9FFFE0EDBCFEAFF85
:100DD000020EE926000EEA22EF50E66EFD0EDBCF92
:100DE000E9FFFE0EDBCFEAFF040EE926000EEA2241
:100DF000EECFE6FFEFCFE6FFEDEC0AF00B6E060E4E
:100E0000E15E0B50000911E0F90EDBCFE9FFFA0EAD
:100E1000DBCFEAFF060EEF6EFB0EDBCFE9FFFC0E29
:100E2000DBCFEAFF030EEF6E08D0FB0EDBCFE9FF4E
:100E3000FC0EDBCFEAFF020EEF6E8DD0020EE66EE7
:100E4000FD0EDBCFE9FFFE0EDBCFEAFF020EE92647
:100E5000000EEA22EF500D6E0E6AFD0EDBCFE9FFA9
:100E6000FE0EDBCFEAFF040EE926000EEA220D504B
:100E7000EE240B6E0E50EE200C6E0BC0E6FF0CC085
:100E8000E6FF2BEC0AF0E552E552E552FD0EDBCF12
:100E9000E9FFFE0EDBCFEAFF020EE926000EEA2292
:100EA000EF50EF2A0B6E0C6AFD0EDBCFE9FFFE0E52
:100EB000DBCFEAFF040EE926000EEA220B50EE24F7
:100EC000E76E0C50EE20EA6EE7CFE9FFEF500A081C
:100ED000B5E1FB0EDBCFE9FFFC0EDBCFEAFFEF6AEB
:100EE000FD0EDBCFE9FFFE0EDBCFEAFFEF0633D0CE
:100EF000FD0EDBCFE9FFFE0EDBCFEAFF020EE92697
:100F0000000EEA22EF50EF2A0B6E0C6AFD0EDBCFCB
:100F1000E9FFFE0EDBCFEAFF040EE926000EEA220F
:100F20000B50EE24E76E0C50EE20EA6EE7CFE9FF9F
:100F3000EF500A0801E0DCD7FB0EDBCFE9FFFC0E27
:100F4000DBCFEAFFEF6AFD0EDBCFE9FFFE0EDBCF62
:0E0F5000EAFFEF0600D0E552E7CFD9FF12000E
:020F5E00D9CFE9
:100F6000E6FFE1CFD9FFF90EDBCFE9FFFA0EDBCFC9
:100F7000EAFFEF50060A01E1EBD1030A01E1A6D135
:100F8000010A01E161D1070A01E1B6D0010A07E0D7
:100F9000030A04E0010A01E028D227D226D2000188
:100FA000B551040A6BE0070A46E0010A2DE0030A86
:100FB00011E0010A01E09FD0F70EDBCFE9FFF80E48
:100FC000DBCFEAFFEE52EF6AF0EC0BF00001010E0E
:100FD000B56F91D0F70EDBCFE9FFF80EDBCFEAFF5C
:100FE000EE52EF5010E0F70EDBCFE9FFF80EDBCF4B
:100FF000EAFFEE52EF6A010EE66EFFEC0BF0E552EF
:101000000001020EB56F77D0F70EDBCFE9FFF80EC7
:10101000DBCFEAFFEE52EF500DE0F70EDBCFE9FF3A
:10102000F80EDBCFEAFFEE52EF6A3AEC0CF000016B
:10103000030EB56F60D0F70EDBCFE9FFF80EDBCF04
:10104000EAFFEE52EF5019E0F70EDBCFE9FFF80EA2
:10105000DBCFEAFFEE52EF6AF70EDBCFE9FFF80EC7
:10106000DBCFEAFF010EEF6EE66EE66E49EC0CF0A8
:10107000E552E5520001040EB56F3DD0F70EDBCF0F
:10108000E9FFF80EDBCFEAFFEE52EF5033E0F70E48
:10109000DBCFE9FFF80EDBCFEAFFEE52EF6AF70E87
:1010A000DBCFE9FFF80EDBCFEAFF050EE926000EE5
:1010B000EA22EECFE6FFEFCFE6FFF70EDBCFE9FF48
:1010C000F80EDBCFEAFF030EE926000EEA22EECF90
:1010D000E6FFEFCFE6FFAEEC0CF0E552E552E5524D
:1010E000E5520001B56BF90EDBCFE9FFFA0EDBCF5D
:1010F000EAFFEF6A00D079D1F70EDBCFE9FFF80EF7
:10110000DBCFEAFF010EEF6E000901E19CD0000188
:10111000B651050A01E18ED0010A01E185D0070A26
:101120006CE0010A2AE0030A11E0010A01E08BD019
:10113000F70EDBCFE9FFF80EDBCFEAFFEE52EF6AE6
:10114000F0EC0BF00001010EB66F7DD0F70EDBCF97
:10115000E9FFF80EDBCFEAFFEE52EF500DE0F70E9D
:10116000DBCFE9FFF80EDBCFEAFFEE52EF6A25ECAA
:101170000DF00001020EB66F66D0F70EDBCFE9FF6F
:10118000F80EDBCFEAFFEE52EF5036E0F70EDBCF82
:10119000E9FFF80EDBCFEAFFEE52EF6AF70EDBCF86
:1011A000E9FFF80EDBCFEAFF020EE926000EEA2285
:1011B000EF50E66EF50EDBCFE9FFF60EDBCFEAFF70
:1011C000E552E750EF6EF50EDBCFE6FFF60EDBCF14
:1011D000E6FF9FEC00F0E552E552F50EDBCFE9FFAC
:1011E000F60EDBCFEAFFEE52EF50E66E6CEC0DF040
:1011F000E5520001030EB66F26D0F70EDBCFE9FFF4
:10120000F80EDBCFEAFFEE52EF500DE0F50EDBCF2C
:10121000E6FFF60EDBCFE6FF6EEC03F0E552E5529B
:101220000001050EB66F0FD0A7EC0DF00001050E02
:10123000B66F09D0B66BF90EDBCFE9FFFA0EDBCF44
:10124000EAFFEF6A00D0D1D0F70EDBCFE9FFF80E4E
:10125000DBCFEAFF030EE926000EEA22EECFE6FF1F
:10126000EFCFE6FF050E0B6EFD0EDBCFE9FFFE0EA6
:10127000DBCFEAFF020EE926000EEA220B50EF2632
:10128000EF50E66EFD0EDBCFE9FFFE0EDBCFEAFF8F
:10129000040EE926000EEA22EECFE6FFEFCFE6FFCE
:1012A000D3EC0FF00C6E050EE15E0C50F90EDBCFA7
:1012B000E9FFFA0EDBCFEAFFEF6AFB0EDBCFE9FFB7
:1012C000FC0EDBCFEAFF030EEF6E8FD0F70EDBCF05
:1012D000E9FFF80EDBCFEAFF050EE926000EEA2251
:1012E000EECFE6FFEFCFE6FF050E0B6EFD0EDBCF78
:1012F000E9FFFE0EDBCFEAFF020EE926000EEA222E
:101300000B50EF26EF50E66EFD0EDBCFE9FFFE0E31
:10131000DBCFEAFF040EE926000EEA22EECFE6FF5D
:10132000EFCFE6FFD3EC0FF00C6E050EE15E0C5034
:10133000F90EDBCFE9FFFA0EDBCFEAFFEF6AFB0E17
:10134000DBCFE9FFFC0EDBCFEAFF030EEF6E4DD0E3
:10135000010EE66EF70EDBCFE9FFF80EDBCFEAFFFA
:10136000070EE926000EEA22EECFE6FFEFCFE6FFFA
:1013700055EC0AF0E552E552E552010EE66EF50E27
:10138000DBCFE9FFF60EDBCFEAFF030EE926000E06
:10139000EA22EECFE6FFEFCFE6FF55EC0AF0E5528A
:1013A000E552E552010EE66E970E0B6E270E0C6E9F
:1013B0000D6A0BC0E6FF0CC0E6FF0DC0E6FF95EC22
:1013C0000AF0E552E552E552E552F90EDBCFE9FFAE
:1013D000FA0EDBCFEAFFEF6AFB0EDBCFE9FFFC0E74
:1013E000DBCFEAFF030EEF6E00D0E552E7CFD9FF67
:0213F0001200E9
:0E13F200D9CFE6FFE1CFD9FFFB0EDB0412E1FD
:10140000ADA2FED7FC0EDBCFF6FFFD0EDBCFF7FF64
:10141000FE0EDBCFF8FF0800F550E66E6EEC13F021
:10142000E55215D0FB0EDB50020811E1A8A2FED751
:10143000FC0EDBCFF6FFFD0EDBCFF7FFFE0EDBCFA2
:10144000F8FF0800F550E66E57EC13F0E552E55250
:10145000E7CFD9FF1200D9CFE6FFE1CFD9FFFC0ECD
:10146000DB040EE1ADA2FED7FD0EDBCFE9FFFE0EE1
:10147000DBCFEAFFEF50E66E6EEC13F0E55211D0D1
:10148000FC0EDB5002080DE1A8A2FED7FD0EDBCF5B
:10149000E9FFFE0EDBCFEAFFEF50E66E57EC13F0EC
:1014A000E552E552E7CFD9FF1200D9CFE6FFE1CFF1
:1014B000D9FFFC0EDB0419E1ADA2FED7FD0EDBCF98
:1014C000E9FFFE0EDBCFEAFFEF50E66E6EEC13F0A5
:1014D000E552FD0EDB2ADBCFE9FFFE0E01E3DB2A3E
:1014E000DBCFEAFFEF50E8E11CD0FC0EDB50020836
:1014F00018E1A8A2FED7FD0EDBCFE9FFFE0EDBCF81
:10150000EAFFEF50E66E57EC13F0E552FD0EDB2AD2
:10151000DBCFE9FFFE0E01E3DB2ADBCFEAFFEF5072
:10152000E8E1E552E7CFD9FF1200D9CFE6FFE1CFDE
:10153000D9FFFB0EDB0425E1ADA2FED7FC0EDBCF0D
:10154000F6FFFD0EDBCFF7FFFE0EDBCFF8FF080046
:10155000F550E66E6EEC13F0E552D950FC0FE96ED3
:10156000FF0EDA20EA6EEF2AEECFF6FF000EEF2232
:10157000EECFF7FFEF22EECFF8FF0800F550DCE1E9
:1015800028D0FB0EDB50020824E1A8A2FED7FC0EF7
:10159000DBCFF6FFFD0EDBCFF7FFFE0EDBCFF8FF54
:1015A0000800F550E66E57EC13F0E552D950FC0FE9
:1015B000E96EFF0EDA20EA6EEF2AEECFF6FF000E9C
:1015C000EF22EECFF7FFEF22EECFF8FF0800F55045
:1015D000DCE1E552E7CFD9FF1200D9CFE6FFE1CF3A
:1015E000D9FFE652F90EDBCFE6FFFA0EDBCFE6FFBE
:1015F000FB0EDBCFE6FFDCEC12F0E552E552E552E4
:101600000550DF6EDF50DF06000929E0FC0EDBCF5E
:10161000F3FFDB2AF350E76EFD0EDBCFE9FFFE0E92
:10162000DBCFEAFFE750E926000EEA22EFCF0BF00E
:10163000D950F90FE96EFF0EDA20EA6EEFCFF6FF10
:10164000EE2AEFCFF7FF000EEE22EFCFF8FFEE22EB
:101650000800F5500B5C02E0000E03D0D3D7010E5A
:1016600000D0E552E552E7CFD9FF1200D9CFE6FF0F
:10167000E1CFD9FFFD0EDBCFE9FFFE0EDBCFEAFFA6
:10168000FC0EDBCFEFFF300E0B6EFD0EDBCFE9FF64
:10169000FE0EDBCFEAFF0B50EF26FD0EDBCFE9FF9E
:1016A000FE0EDBCFEAFFEF5039080AE2070E0B6EA1
:1016B000FD0EDBCFE9FFFE0EDBCFEAFF0B50EF267E
:1016C000E552E7CFD9FF1200D9CFE6FFE1CFD9FF2E
:1016D000060EE126010EDB6AF36E020EF3CFDBFF8E
:1016E0000A0EF36E030EF3CFDBFF640EF36E040EEF
:1016F000F3CFDBFF020EF36E050EF3CFDBFFFC0E24
:10170000DB5052E0DF6AD950020F0B6EDACF0CF0DB
:10171000050EDB500F010B24E96E000E0C20EA6E63
:10172000EF50F36EFC0EDBCFF4FFF350F45C19E3E3
:10173000D950020F0B6EDACF0CF0050EDB500B24E4
:10174000E96E000E0C20EA6EFC0EDBCFE7FFEF50D7
:10175000E75EFC0EE7CFDBFFDF2ADE52010EDD6E17
:10176000D2D7010EDB5011E0DFCFE6FFFD0EDBCF5D
:10177000E6FFFE0EDBCFE6FF79DFE552E552E552EC
:10178000FD0EDB2AFE0E01E3DB2A050EDBCFF3FFA5
:10179000DB06F3500009B6E1FD0EDBCFE9FFFE0EDC
:1017A000DBCFEAFFEF6A12D0FD0EDBCFE9FFDB2AC9
:1017B000FE0EDBCFEAFF01E3DB2A300EEF6EFD0EFB
:1017C000DBCFE9FFFE0EDBCFEAFFEF6A060EE15C3E
:1017D00002E2E16AE552E16EE552E7CFD9FF12007D
:1017E000020EE66E7E0EE66E220EE66E000EE66ECF
:1017F00095EC0AF0E552E552E552E5521200D9CFD8
:10180000E6FFE1CFD9FF020EE66E8E0EE66E220EE7
:10181000E66E000EE66E95EC0AF0E552E552E552F2
:10182000E552FE0EDBCFE6FFAD0EE66E000EE66E75
:1018300064EC0BF0E552E552E552020EE66EAD0E99
:10184000E66E000EE66E55EC0AF0E552E552E55202
:10185000020EE66E6E0EE66E220EE66E000EE66E6E
:1018600095EC0AF0E552E552E552E552E552E7CF34
:10187000D9FF1200020EE66E9E0EE66E220EE66E96
:10188000000EE66E95EC0AF0E552E552E552E5529F
:101890001200D9CFE6FFE1CFD9FF020EE66EAE0E01
:1018A000E66E220EE66E000EE66E95EC0AF0E5524C
:1018B000E552E552E552FE0EDBCFE6FFAD0EE66ED9
:1018C000000EE66E64EC0BF0E552E552E552020EB6
:1018D000E66EAD0EE66E000EE66E55EC0AF0E552D1
:1018E000E552E552020EE66E900E0B6E270E0C6E60
:1018F0000D6A0BC0E6FF0CC0E6FF0DC0E6FF95ECDD
:101900000AF0E552E552E552E552FD0EDBCFE6FF67
:10191000AD0EE66E000EE66E64EC0BF0E552E5529D
:10192000E552020EE66EAD0EE66E000EE66E55EC6A
:101930000AF0E552E552E552020EE66E6E0EE66ED4
:10194000220EE66E000EE66E95EC0AF0E552E552C8
:10195000E552E552E552E7CFD9FF1200D9CFE6FFB5
:10196000E1CFD9FF020EE66EBE0EE66E220EE66EE7
:10197000000EE66E95EC0AF0E552E552E552E552AE
:10198000020EE66E8E0E0B6E270E0C6E0D6A0BC0ED
:10199000E6FF0CC0E6FF0DC0E6FF95EC0AF0E5524D
:1019A000E552E552E552020EE66EFD0EDBCFE6FF94
:1019B000FE0EDBCFE6FF55EC0AF0E552E552E552AC
:1019C000020EE66E8A0E0B6E270E0C6E0D6A0BC0B1
:1019D000E6FF0CC0E6FF0DC0E6FF95EC0AF0E5520D
:1019E000E552E552E552020EE66EFB0EDBCFE6FF56
:1019F000FC0EDBCFE6FF55EC0AF0E552E552E5526E
:101A0000020EE66E8E0E0B6E270E0C6E0D6A0BC06C
:101A1000E6FF0CC0E6FF0DC0E6FF95EC0AF0E552CC
:101A2000E552E552E552020EE66E6E0EE66E220EAD
:101A3000E66E000EE66E95EC0AF0E552E552E552D0
:101A4000E552E552E7CFD9FF1200020EE66ECE0E48
:101A5000E66E220EE66E000EE66E95EC0AF0E5529A
:101A6000E552E552E552020EE66E520EE66E220E89
:101A7000E66E000EE66E95EC0AF0E552E552E55290
:101A8000E552020EE66E590EE66E220EE66E000E6E
:101A9000E66E95EC0AF0E552E552E552E552020E8B
:101AA000E66E6B0EE66E220EE66E000EE66E95ECAE
:101AB0000AF0E552E552E552E552020EE66E6E0E70
:101AC000E66E220EE66E000EE66E95EC0AF0E5522A
:101AD000E552E552E5521200D9CFE6FFE1CFD9FF3A
:101AE000FE0EDBCFE6FFB10EE66E000EE66E64EC96
:101AF0000BF0E552E552E552020EE66EDE0EE66EA2
:101B0000220EE66E000EE66E95EC0AF0E552E55206
:101B1000E552E552020EE66EB10EE66E000EE66E7E
:101B200055EC0AF0E552E552E552020EE66E6E0EF5
:101B3000E66E220EE66E000EE66E95EC0AF0E552B9
:101B4000E552E552E552E552E7CFD9FF1200020E09
:101B5000E66EEE0EE66E220EE66E000EE66E95EC7A
:0C1B60000AF0E552E552E552E552120091
:041B6C00D9CFE6FFE8
:101B7000E1CFD9FFFA0EDBCFF3FFDB2AF350E76E9C
:101B8000FD0EDBCFE9FFFE0EDBCFEAFFE750E926D3
:101B9000000EEA22EF50E66EFB0EDBCFE9FFDB2AF8
:101BA000FC0EDBCFEAFF01E3DB2AE552E750EF6EE4
:101BB000FA0EDB50E76EFD0EDBCFE9FFFE0EDBCF4A
:101BC000EAFFE750E926000EEA22EF502208D2E1B0
:101BD000FB0EDBCFE9FFFC0EDBCFEAFFEF6AE5523D
:101BE000E7CFD9FF1200D9CFE6FFE1CFD9FFFD0E35
:101BF000DBCFE9FFFE0EDBCFEAFFEE52EFCF0BF0BB
:101C0000FD0EDBCFE9FFFE0EDBCFEAFF030EE92678
:101C1000000EEA22EF500B5C29E0010EE66EFD0E8D
:101C2000DBCFE9FFFE0EDBCFEAFF030EE926000E55
:101C3000EA22EF50EF2A0D6E0E6AFD0EDBCFE9FFB0
:101C4000FE0EDBCFEAFF040EE926000EEA220D505D
:101C5000EE240B6E0E50EE200C6E0BC0E6FF0CC097
:101C6000E6FF2BEC0AF0E552E552E552FB0EDBCF26
:101C7000E9FFFC0EDBCFEAFFEF50030A01E1E3D0FE
:101C8000010A01E1DFD0030A14E0010A01E007D1F3
:101C9000FD0EDBCFE9FFFE0EDBCFEAFFEF5008E0E1
:101CA000FB0EDBCFE9FFFC0EDBCFEAFF010EEF6E90
:101CB000F6D0300EE66E250EE66E000EE66EFD0ED8
:101CC000DBCFE9FFFE0EDBCFEAFF020EE926000EB6
:101CD000EA22EF50E66EFD0EDBCFE9FFFE0EDBCF12
:101CE000EAFF040EE926000EEA22EECFE6FFEFCF70
:101CF000E6FFEDEC0AF00B6E060EE15E0B500009FC
:101D00000AE0F90EDBCFE9FFFA0EDBCFEAFFEE5275
:101D1000010EEF6E87D0540EE66E250EE66E000EB5
:101D2000E66EFD0EDBCFE9FFFE0EDBCFEAFF020E13
:101D3000E926000EEA22EF50E66EFD0EDBCFE9FF4A
:101D4000FE0EDBCFEAFF040EE926000EEA22EECFFC
:101D5000E6FFEFCFE6FFEDEC0AF00B6E060EE15E5C
:101D60000B50000909E0F90EDBCFE9FFFA0EDBCFDB
:101D7000EAFF010EEF6E56D0780EE66E250EE66E87
:101D8000000EE66EFD0EDBCFE9FFFE0EDBCFEAFFB5
:101D9000020EE926000EEA22EF50E66EFD0EDBCFC2
:101DA000E9FFFE0EDBCFEAFF040EE926000EEA2271
:101DB000EECFE6FFEFCFE6FFEDEC0AF00B6E060E7E
:101DC000E15E0B5000092EE0FD0EDBCFE9FFFE0EB9
:101DD000DBCFEAFF020EE926000EEA22EF50230FC6
:101DE000E66EF70EDBCFE9FFF80EDBCFEAFF030E5E
:101DF000E926000EEA22EECFE6FFEFCFE6FFFD0E6A
:101E0000DBCFE9FFFE0EDBCFEAFF040EE926000E72
:101E1000EA22EECFE6FFEFCFE6FFA8DE0B6E050E5F
:101E2000E15E0B50FD0EDBCFE9FFFE0EDBCFEAFFDC
:101E3000EF06FB0EDBCFE9FFFC0EDBCFEAFF030E64
:101E4000EF6E2DD02CD0FD0EDBCFE9FFFE0EDBCFE9
:101E5000EAFF020EE926000EEA22EF50EF2A0B6E8F
:101E60000C6AFD0EDBCFE9FFFE0EDBCFEAFF040EAE
:101E7000E926000EEA220B50EE24E76E0C50EE200D
:101E8000EA6EE7CFE9FFEF500A0801E0DCD7FB0E6E
:101E9000DBCFE9FFFC0EDBCFEAFFEF6A00D0E552B3
:061EA000E7CFD9FF12009C
:0A1EA600D9CFE6FFE1CFD9FFE652E5
:101EB000000E000181150B6EF00E82150C6E0C38B1
:101EC0000C6A0F0B0B6E0B50DF6E300EDF26DF50EF
:101ED000390802E2070EDF26FD0EDBCFE9FFFE0E1A
:101EE000DBCFEAFFDFCFEFFF000E81150B6E0F0E89
:101EF00082150C6E0CC00BF00C6A0B50DF6E300EAE
:101F0000DF26DF50390802E2070EDF26010EE76EFA
:101F1000FD0EDBCFE9FFFE0EDBCFEAFFE750E9263F
:101F2000000EEA22DFCFEFFFF00E81150B6E0C6A78
:101F3000040ED8900C320B32E804FBE10B50DF6E3C
:101F4000300EDF26DF50390802E2070EDF26020ED0
:101F5000E76EFD0EDBCFE9FFFE0EDBCFEAFFE750B9
:101F6000E926000EEA22DFCFEFFF0F0E00018115F8
:101F7000DF6E300EDF26DF50390802E2070EDF2663
:101F8000030EE76EFD0EDBCFE9FFFE0EDBCFEAFFAF
:101F9000E750E926000EEA22DFCFEFFFE552E552D7
:101FA000E7CFD9FF1200D9CFE6FFE1CFD9FFFC0E72
:101FB000DBCFF3FFDB2AF350E76EFD0EDBCFE9FF4B
:101FC000FE0EDBCFEAFFE750E926000EEA22EF50D3
:101FD000E66EFA0EDBCFE9FFDB2AFB0EDBCFEAFF72
:101FE00001E3DB2AE552E750EF6EFC0EDB50E76EB3
:101FF000FD0EDBCFE9FFFE0EDBCFEAFFE750E9265F
:10200000000EEA22EF500D08D2E1FA0EDBCFE9FF15
:10201000FB0EDBCFEAFFEF6AE552E7CFD9FF1200F4
:10202000D9CFE6FFE1CFD9FF180EE126DF6A010E16
:10203000DB6A020EDB6A110EDB6A120EDB6A130E1C
:10204000DB6A140EDB6A150EDB6AC9EC10F0030EB6
:10205000DB6A040EDB6AD950060FE96EDACFEAFFBD
:10206000000EEE6E010EED6ED950080FE96EDACF5C
:10207000EAFF800EEE6E010EED6ED9500A0FE96E8A
:10208000DACFEAFF870EEE6E000EED6ED9500F0F1D
:10209000E96EDACFEAFF6C0EEE6E000EED6E000117
:1020A000000E646F030E656F616B626B636B606B38
:1020B000000E6A6F020E6B6F676B686B696B666B05
:1020C000300E7C6F7D6F7E6F7F6F806B816B826B5C
:1020D000D950030FE66E000EDA20E66ED950020FDB
:1020E000E66E000EDA20E66ED9CFE6FFDACFE6FF25
:1020F000600EE66E000EE66E36EC05F00B6E080E16
:10210000E15E0B50D9500C0FE66E000EDA20E66E41
:10211000D950030FE66E000EDA20E66ED950010F9B
:10212000E66E000EDA20E66E660EE66E000EE66ED5
:10213000F3EC0DF00B6E080EE15E0B50D9500C0F56
:10214000E66E000EDA20E66ED950030FE66E000E42
:10215000DA20E66ED950020FE66E000EDA20E66E47
:10216000D9CFE6FFDACFE6FF600EE66E000EE66E30
:10217000AFEC07F00B6E0A0EE15E0B50A9D7180EFC
:10218000E15C02E2E16AE552E16EE552E7CFD9FF98
:0221900012003B
:0E219200F26AC00E9B6E740ED36ECD6A0E0103
:1021A000FF910E01F29E550EA76EAA0EA76EFF912B
:1021B0000C0EF66F050ED16F070EE76F550EA76E6A
:1021C000AA0EA76EFF81C26AC16A0F01499F0F0163
:1021D000536BD26A896A0F0148693F0E926E8A6A10
:1021E000170E0F0149110F01496F100E936E400E2B
:1021F0008B6E0F014997820E946E0C0EE66EE66AA6
:102200001C0EE66E5FEC12F0E552E552E552E40E6C
:10221000E66E96EC13F0E5527E9A0C0EE66EE66AD8
:102220001C0EE66E23EC12F0E552E552E552E40E88
:10223000E66E85EC13F0E5527C9A080ED56ED76AEF
:10224000D66AD09E9E9A9D8AA49AA38AF28CF28E18
:0222500012007A
:0E22520022544350222C00226170692E6D79B7
:102260006A736F6E2E636F6D222C003830000D0A7A
:1022700000000000000000000000000000004154C9
:102280000D0A0000000000000000000000004154A2
:102290002B43574D4F44453D000000000000415482
:1022A0002B5253540D0A000000000000000041545E
:1022B0002B4357444843503D000000000000415468
:1022C0002B43574A41503D0000000000000041549C
:1022D0002B43495053544152543D00000000415497
:1022E0002B43495053454E443D00000000004154EB
:0E22F0002B434950434C4F53450D0A0000004C
:0222FE000D0AC7
:1023000000504F535420004745542000005055546E
:1023100020000020485454502F312E3100484F5394
:10232000543A200000000000000000000000434F6D
:102330004E54454E542D545950453A200000004308
:102340004F4E54454E542D4C454E4754483A20006C
:10235000434F4E4E454354494F4E3A200000000033
:10236000006170692E6D796A736F6E2E636F6D00F8
:102370006170706C69636174696F6E2F6A736F6EE0
:1023800000636C6F73650000000000006B65657092
:102390002D616C697665002F62696E73007B223057
:0723A000223A2230227D00E9
:0823A800240EF66E010EF76E23
:1023B000000EF86E00010900F550A86F0900F550F5
:1023C000A96F03E1A86701D03DD00900F550A36FC4
:1023D0000900F550A46F0900F550A56F0900090028
:1023E000F550E96E0900F550EA6E09000900090090
:1023F000F550A66F0900F550A76F09000900F6CF48
:10240000AAF0F7CFABF0F8CFACF0A3C0F6FFA4C0B2
:10241000F7FFA5C0F8FF0001A65302E1A75307E0AC
:102420000900F550EE6EA607F8E2A707F9D7AAC093
:10243000F6FFABC0F7FFACC0F8FF0001A807000E25
:06244000A95BBFD71200EA
:0A244600D9CFE6FFDACFE6FFE1CFC1
:10245000D9FFE2CFDAFFA86A9C6AFD0EDBB0A8883C
:10246000DBA202D0A88C9C8CDBB4A88EDBA602D0A9
:102470009C8801D09C8ADBA802D0A88401D0A894B3
:10248000DBBA9C86DBAC02D0A38A01D0A39ADBAE78
:1024900002D0A38801D0A398FB0EDB50AB6EFC0EDC
:1024A000DBCF0CF00CC00BF00C6A0B507D6EA88AD1
:0E24B0009C8EE552E5CFDAFFE7CFD9FF120090
:0224BE00D9CF74
:1024C000E6FFDACFE6FFE1CFD9FFE2CFDAFFAD6A70
:1024D000AC6AFD0EDBB0AD88DBA202D0AD8CAC8C5B
:1024E000DBB4AD8EDBA602D0AC8801D0AC8ADBB801
:1024F000AD84DBBAAC86DBAC02D09D8A01D09D9A5C
:10250000DBAE02D09D8801D09D98FB0EDB50B06EF3
:10251000FC0EDBCF0CF00CC00BF00C6A0B507F6E86
:10252000AD8AAC8EE552E5CFDAFFE7CFD9FF1200D6
:102530004F4B0D0A000000000000000000000000EA
:10254000000000000000000000000000000000008B
:10255000000000005749464920474F542049500D7C
:102560000A00000000000000000000000000000061
:1025700000000000000000007B22757269223A22F0
:10258000687474703A2F2F6170692E6D796A736F59
:0C2590006E2E636F6D2F62696E732F005A
:04259C00FE0EE3CF7D
:1025A000E9FFFF0EE3CFEAFFF36AF46AEE5203E0BD
:1025B000F34AF42AFBD71200FF0EE3CFF8FFE552EF
:1025C000FF0EE3CFF7FFE552FF0EE3CFF6FFE55234
:1025D000E66AE66AE66A0900F55209E0FD0EE32ABA
:1025E00005E1FE0EE32A02E1FF0EE32AF4D7FD0E19
:1025F000E3CF05F0FE0EE3CF06F0FF0EE3CF07F0CA
:022600001200C6
:0E260200D9CFE6FFDACFE6FFE1CFD9FFE2CF76
:10261000DAFFE652F20E0001B7179CAC03D0B79177
:102620009CB0B7819CB4B7859CB2B787AA50DF6EC7
:10263000DF50E552E552E5CFDAFFE7CFD9FF1200D0
:10264000D9CFE6FFDACFE6FFE1CFD9FFE2CFDAFF5D
:10265000E652F20E0001B817ACAC03D0B891ACB0A2
:10266000B881ACB4B885ACB2B887AF50DF6EDF507C
:0E267000E552E552E5CFDAFFE7CFD9FF1200C1
:02267E00736582
:10268000747570000000636F6E6E65637400757022
:102690006C6F616400007373696400000000706116
:0E26A00073730000000075726C0000000000F3
:0226AE00D9CF82
:1026B000E6FFDACFE6FFE1CFD9FFE2CFDAFFA8AC41
:1026C00004D0A8900001B7B3A880FD0EDB50A96E1E
:0C26D000E552E5CFDAFFE7CFD9FF12009A
:0426DC00D9CFE6FF6D
:1026E000DACFE6FFE1CFD9FFE2CFDAFFADAC04D01D
:1026F000AD900001B8B3AD80FD0EDB50AE6EE5527B
:0A270000E5CFDAFFE7CFD9FF1200A2
:06270A00D9CFE6FFDACF93
:10271000E6FFE1CFD9FFE2CFDAFFFD0EDB507C6EA2
:0C272000E552E5CFDAFFE7CFD9FF120049
:04272C00D9CFE6FF1C
:10273000DACFE6FFE1CFD9FFE2CFDAFFFD0EDB50C3
:0E2740007E6EE552E5CFDAFFE7CFD9FF12003B
:02274E00C00EBB
:10275000F36E00EE00F00E0E01D81200EA6002D017
:0E276000EE6AFCD7F350E9601200EE6AFCD777
:02276E001DEE5E
:1027700000F02DEE00F0F86A0A9CD4EC11F003ECA6
:0A27800000F010EC10F0FBD712007F
:06278A00222C22002200B7
:0C2790002C0068657265000D0A002F0027
:04279C006874747079
:1027A0003A2F2F6170692E6D796A736F6E2E636F89
:0827B0006D2F62696E732F00AA
:0227B80000001F
:013FF800AC1C
:013FF900F6D1
:013FFA00D3F3
:013FFD00F8CB
:00000001FF
